{
  "transactions": [
    {
      "hash": "0x86e2f1e5810c455d77e9ab39abb933ee9a96a09e18090be32762ec13634451d2",
      "transactionType": "CALL",
      "contractName": null,
      "contractAddress": "0x83e2654994264333e6fdfe2e43eb862866746041",
      "function": "safeTransferFrom(address,address,uint256)",
      "arguments": [
        "0x764D2F2e65153A08C5509235334B08Be2ae02915",
        "0xB0BF498288dff665e3129f63E1d010F9297205f1",
        "68"
      ],
      "transaction": {
        "from": "0x764d2f2e65153a08c5509235334b08be2ae02915",
        "to": "0x83e2654994264333e6fdfe2e43eb862866746041",
        "gas": "0x30852",
        "value": "0x0",
        "input": "0x42842e0e000000000000000000000000764d2f2e65153a08c5509235334b08be2ae02915000000000000000000000000b0bf498288dff665e3129f63e1d010f9297205f10000000000000000000000000000000000000000000000000000000000000044",
        "nonce": "0x65a",
        "chainId": "0x1"
      },
      "additionalContracts": [],
      "isFixedGasLimit": false
    },
    {
      "hash": "0xfdfbc990708849cccb8a151e5843b49db79c641b1ab46ae25cff4f7fa2169df0",
      "transactionType": "CALL",
      "contractName": null,
      "contractAddress": "0x83e2654994264333e6fdfe2e43eb862866746041",
      "function": "safeTransferFrom(address,address,uint256)",
      "arguments": [
        "0x764D2F2e65153A08C5509235334B08Be2ae02915",
        "0xB0BF498288dff665e3129f63E1d010F9297205f1",
        "69"
      ],
      "transaction": {
        "from": "0x764d2f2e65153a08c5509235334b08be2ae02915",
        "to": "0x83e2654994264333e6fdfe2e43eb862866746041",
        "gas": "0x30852",
        "value": "0x0",
        "input": "0x42842e0e000000000000000000000000764d2f2e65153a08c5509235334b08be2ae02915000000000000000000000000b0bf498288dff665e3129f63e1d010f9297205f10000000000000000000000000000000000000000000000000000000000000045",
        "nonce": "0x65b",
        "chainId": "0x1"
      },
      "additionalContracts": [],
      "isFixedGasLimit": false
    },
    {
      "hash": "0x0e4691b2569fd91f76e52b8efd1c18e285051d9d1ae75558edeb5bb0004bb96c",
      "transactionType": "CALL",
      "contractName": null,
      "contractAddress": "0x83e2654994264333e6fdfe2e43eb862866746041",
      "function": "safeTransferFrom(address,address,uint256)",
      "arguments": [
        "0x764D2F2e65153A08C5509235334B08Be2ae02915",
        "0xB0BF498288dff665e3129f63E1d010F9297205f1",
        "70"
      ],
      "transaction": {
        "from": "0x764d2f2e65153a08c5509235334b08be2ae02915",
        "to": "0x83e2654994264333e6fdfe2e43eb862866746041",
        "gas": "0x30852",
        "value": "0x0",
        "input": "0x42842e0e000000000000000000000000764d2f2e65153a08c5509235334b08be2ae02915000000000000000000000000b0bf498288dff665e3129f63e1d010f9297205f10000000000000000000000000000000000000000000000000000000000000046",
        "nonce": "0x65c",
        "chainId": "0x1"
      },
      "additionalContracts": [],
      "isFixedGasLimit": false
    },
    {
      "hash": "0x5b83eb66090b11142ea1e4b3fcac4b87cafa97f7389ba5452937e7515a639463",
      "transactionType": "CALL",
      "contractName": null,
      "contractAddress": "0x83e2654994264333e6fdfe2e43eb862866746041",
      "function": "safeTransferFrom(address,address,uint256)",
      "arguments": [
        "0x764D2F2e65153A08C5509235334B08Be2ae02915",
        "0xB0BF498288dff665e3129f63E1d010F9297205f1",
        "71"
      ],
      "transaction": {
        "from": "0x764d2f2e65153a08c5509235334b08be2ae02915",
        "to": "0x83e2654994264333e6fdfe2e43eb862866746041",
        "gas": "0x30852",
        "value": "0x0",
        "input": "0x42842e0e000000000000000000000000764d2f2e65153a08c5509235334b08be2ae02915000000000000000000000000b0bf498288dff665e3129f63e1d010f9297205f10000000000000000000000000000000000000000000000000000000000000047",
        "nonce": "0x65d",
        "chainId": "0x1"
      },
      "additionalContracts": [],
      "isFixedGasLimit": false
    },
    {
      "hash": "0x21e37906b55ed43d68d38425e4774c65d86a080d6e93471a270b3da96fdbb0ef",
      "transactionType": "CALL",
      "contractName": null,
      "contractAddress": "0x83e2654994264333e6fdfe2e43eb862866746041",
      "function": "safeTransferFrom(address,address,uint256)",
      "arguments": [
        "0x764D2F2e65153A08C5509235334B08Be2ae02915",
        "0xB0BF498288dff665e3129f63E1d010F9297205f1",
        "72"
      ],
      "transaction": {
        "from": "0x764d2f2e65153a08c5509235334b08be2ae02915",
        "to": "0x83e2654994264333e6fdfe2e43eb862866746041",
        "gas": "0x30852",
        "value": "0x0",
        "input": "0x42842e0e000000000000000000000000764d2f2e65153a08c5509235334b08be2ae02915000000000000000000000000b0bf498288dff665e3129f63e1d010f9297205f10000000000000000000000000000000000000000000000000000000000000048",
        "nonce": "0x65e",
        "chainId": "0x1"
      },
      "additionalContracts": [],
      "isFixedGasLimit": false
    },
    {
      "hash": "0xdaf312bb513372be9ae283729724011b97d09e3859c6394e7aa35d4725842a63",
      "transactionType": "CALL",
      "contractName": null,
      "contractAddress": "0x83e2654994264333e6fdfe2e43eb862866746041",
      "function": "safeTransferFrom(address,address,uint256)",
      "arguments": [
        "0x764D2F2e65153A08C5509235334B08Be2ae02915",
        "0xB0BF498288dff665e3129f63E1d010F9297205f1",
        "73"
      ],
      "transaction": {
        "from": "0x764d2f2e65153a08c5509235334b08be2ae02915",
        "to": "0x83e2654994264333e6fdfe2e43eb862866746041",
        "gas": "0x30852",
        "value": "0x0",
        "input": "0x42842e0e000000000000000000000000764d2f2e65153a08c5509235334b08be2ae02915000000000000000000000000b0bf498288dff665e3129f63e1d010f9297205f10000000000000000000000000000000000000000000000000000000000000049",
        "nonce": "0x65f",
        "chainId": "0x1"
      },
      "additionalContracts": [],
      "isFixedGasLimit": false
    },
    {
      "hash": "0x35363fd57dba36b87a1f97ee95ca6b086d8addfbb314f496110159402e186ab3",
      "transactionType": "CALL",
      "contractName": null,
      "contractAddress": "0x83e2654994264333e6fdfe2e43eb862866746041",
      "function": "safeTransferFrom(address,address,uint256)",
      "arguments": [
        "0x764D2F2e65153A08C5509235334B08Be2ae02915",
        "0xB0BF498288dff665e3129f63E1d010F9297205f1",
        "74"
      ],
      "transaction": {
        "from": "0x764d2f2e65153a08c5509235334b08be2ae02915",
        "to": "0x83e2654994264333e6fdfe2e43eb862866746041",
        "gas": "0x30852",
        "value": "0x0",
        "input": "0x42842e0e000000000000000000000000764d2f2e65153a08c5509235334b08be2ae02915000000000000000000000000b0bf498288dff665e3129f63e1d010f9297205f1000000000000000000000000000000000000000000000000000000000000004a",
        "nonce": "0x660",
        "chainId": "0x1"
      },
      "additionalContracts": [],
      "isFixedGasLimit": false
    },
    {
      "hash": "0x795aaa9db8b855eb1534cbb6f1e501054c425f849065326b18893c9fed29c7ee",
      "transactionType": "CALL",
      "contractName": null,
      "contractAddress": "0x83e2654994264333e6fdfe2e43eb862866746041",
      "function": "safeTransferFrom(address,address,uint256)",
      "arguments": [
        "0x764D2F2e65153A08C5509235334B08Be2ae02915",
        "0xB0BF498288dff665e3129f63E1d010F9297205f1",
        "75"
      ],
      "transaction": {
        "from": "0x764d2f2e65153a08c5509235334b08be2ae02915",
        "to": "0x83e2654994264333e6fdfe2e43eb862866746041",
        "gas": "0x30852",
        "value": "0x0",
        "input": "0x42842e0e000000000000000000000000764d2f2e65153a08c5509235334b08be2ae02915000000000000000000000000b0bf498288dff665e3129f63e1d010f9297205f1000000000000000000000000000000000000000000000000000000000000004b",
        "nonce": "0x661",
        "chainId": "0x1"
      },
      "additionalContracts": [],
      "isFixedGasLimit": false
    },
    {
      "hash": "0x6f397a33b502163e852a81d03c7a51de7ad5cf742a92742c65a352dafb96104e",
      "transactionType": "CALL",
      "contractName": null,
      "contractAddress": "0x83e2654994264333e6fdfe2e43eb862866746041",
      "function": "safeTransferFrom(address,address,uint256)",
      "arguments": [
        "0x764D2F2e65153A08C5509235334B08Be2ae02915",
        "0xB0BF498288dff665e3129f63E1d010F9297205f1",
        "76"
      ],
      "transaction": {
        "from": "0x764d2f2e65153a08c5509235334b08be2ae02915",
        "to": "0x83e2654994264333e6fdfe2e43eb862866746041",
        "gas": "0x30852",
        "value": "0x0",
        "input": "0x42842e0e000000000000000000000000764d2f2e65153a08c5509235334b08be2ae02915000000000000000000000000b0bf498288dff665e3129f63e1d010f9297205f1000000000000000000000000000000000000000000000000000000000000004c",
        "nonce": "0x662",
        "chainId": "0x1"
      },
      "additionalContracts": [],
      "isFixedGasLimit": false
    },
    {
      "hash": "0xf64e59b0ba3bc3ac80886b2ad198a345836f73926ff5b5b7766f2f62c928d3e4",
      "transactionType": "CALL",
      "contractName": null,
      "contractAddress": "0x83e2654994264333e6fdfe2e43eb862866746041",
      "function": "safeTransferFrom(address,address,uint256)",
      "arguments": [
        "0x764D2F2e65153A08C5509235334B08Be2ae02915",
        "0xB0BF498288dff665e3129f63E1d010F9297205f1",
        "78"
      ],
      "transaction": {
        "from": "0x764d2f2e65153a08c5509235334b08be2ae02915",
        "to": "0x83e2654994264333e6fdfe2e43eb862866746041",
        "gas": "0x30852",
        "value": "0x0",
        "input": "0x42842e0e000000000000000000000000764d2f2e65153a08c5509235334b08be2ae02915000000000000000000000000b0bf498288dff665e3129f63e1d010f9297205f1000000000000000000000000000000000000000000000000000000000000004e",
        "nonce": "0x663",
        "chainId": "0x1"
      },
      "additionalContracts": [],
      "isFixedGasLimit": false
    },
    {
      "hash": "0xe26104475d111ef4708ab6dcd971da01fb2c78b0ac17611efb660e27c4d6a2aa",
      "transactionType": "CALL",
      "contractName": null,
      "contractAddress": "0x83e2654994264333e6fdfe2e43eb862866746041",
      "function": "safeTransferFrom(address,address,uint256)",
      "arguments": [
        "0x764D2F2e65153A08C5509235334B08Be2ae02915",
        "0xB0BF498288dff665e3129f63E1d010F9297205f1",
        "80"
      ],
      "transaction": {
        "from": "0x764d2f2e65153a08c5509235334b08be2ae02915",
        "to": "0x83e2654994264333e6fdfe2e43eb862866746041",
        "gas": "0x30852",
        "value": "0x0",
        "input": "0x42842e0e000000000000000000000000764d2f2e65153a08c5509235334b08be2ae02915000000000000000000000000b0bf498288dff665e3129f63e1d010f9297205f10000000000000000000000000000000000000000000000000000000000000050",
        "nonce": "0x664",
        "chainId": "0x1"
      },
      "additionalContracts": [],
      "isFixedGasLimit": false
    },
    {
      "hash": "0x531cb2bdc1b63374db7ffaedbe0200ada3d05122d988fb05fcb3d87ad72a9146",
      "transactionType": "CALL",
      "contractName": null,
      "contractAddress": "0x83e2654994264333e6fdfe2e43eb862866746041",
      "function": "safeTransferFrom(address,address,uint256)",
      "arguments": [
        "0x764D2F2e65153A08C5509235334B08Be2ae02915",
        "0xB0BF498288dff665e3129f63E1d010F9297205f1",
        "82"
      ],
      "transaction": {
        "from": "0x764d2f2e65153a08c5509235334b08be2ae02915",
        "to": "0x83e2654994264333e6fdfe2e43eb862866746041",
        "gas": "0x30852",
        "value": "0x0",
        "input": "0x42842e0e000000000000000000000000764d2f2e65153a08c5509235334b08be2ae02915000000000000000000000000b0bf498288dff665e3129f63e1d010f9297205f10000000000000000000000000000000000000000000000000000000000000052",
        "nonce": "0x665",
        "chainId": "0x1"
      },
      "additionalContracts": [],
      "isFixedGasLimit": false
    },
    {
      "hash": "0x3e005170d55e43c41c668d42a3aab7249a771b7c3e618eb9328704c295da447b",
      "transactionType": "CALL",
      "contractName": null,
      "contractAddress": "0x83e2654994264333e6fdfe2e43eb862866746041",
      "function": "safeTransferFrom(address,address,uint256)",
      "arguments": [
        "0x764D2F2e65153A08C5509235334B08Be2ae02915",
        "0xB0BF498288dff665e3129f63E1d010F9297205f1",
        "84"
      ],
      "transaction": {
        "from": "0x764d2f2e65153a08c5509235334b08be2ae02915",
        "to": "0x83e2654994264333e6fdfe2e43eb862866746041",
        "gas": "0x30852",
        "value": "0x0",
        "input": "0x42842e0e000000000000000000000000764d2f2e65153a08c5509235334b08be2ae02915000000000000000000000000b0bf498288dff665e3129f63e1d010f9297205f10000000000000000000000000000000000000000000000000000000000000054",
        "nonce": "0x666",
        "chainId": "0x1"
      },
      "additionalContracts": [],
      "isFixedGasLimit": false
    },
    {
      "hash": "0x3510c0c48ea50ec28e5ef4d6ac1c5ae713758c0e4df1367f27cb01da57837ca1",
      "transactionType": "CALL",
      "contractName": null,
      "contractAddress": "0x83e2654994264333e6fdfe2e43eb862866746041",
      "function": "safeTransferFrom(address,address,uint256)",
      "arguments": [
        "0x764D2F2e65153A08C5509235334B08Be2ae02915",
        "0xB0BF498288dff665e3129f63E1d010F9297205f1",
        "85"
      ],
      "transaction": {
        "from": "0x764d2f2e65153a08c5509235334b08be2ae02915",
        "to": "0x83e2654994264333e6fdfe2e43eb862866746041",
        "gas": "0x30852",
        "value": "0x0",
        "input": "0x42842e0e000000000000000000000000764d2f2e65153a08c5509235334b08be2ae02915000000000000000000000000b0bf498288dff665e3129f63e1d010f9297205f10000000000000000000000000000000000000000000000000000000000000055",
        "nonce": "0x667",
        "chainId": "0x1"
      },
      "additionalContracts": [],
      "isFixedGasLimit": false
    },
    {
      "hash": "0x11a106f9e5299a833a93b0d4a972c55462967f131d303eaf1d4880e1e1f510d2",
      "transactionType": "CALL",
      "contractName": null,
      "contractAddress": "0x83e2654994264333e6fdfe2e43eb862866746041",
      "function": "safeTransferFrom(address,address,uint256)",
      "arguments": [
        "0x764D2F2e65153A08C5509235334B08Be2ae02915",
        "0xB0BF498288dff665e3129f63E1d010F9297205f1",
        "86"
      ],
      "transaction": {
        "from": "0x764d2f2e65153a08c5509235334b08be2ae02915",
        "to": "0x83e2654994264333e6fdfe2e43eb862866746041",
        "gas": "0x30852",
        "value": "0x0",
        "input": "0x42842e0e000000000000000000000000764d2f2e65153a08c5509235334b08be2ae02915000000000000000000000000b0bf498288dff665e3129f63e1d010f9297205f10000000000000000000000000000000000000000000000000000000000000056",
        "nonce": "0x668",
        "chainId": "0x1"
      },
      "additionalContracts": [],
      "isFixedGasLimit": false
    },
    {
      "hash": "0xb65c6caf4f590d07a73fbbeb73b1830689b337899d89500a0c075a89e84d30c7",
      "transactionType": "CALL",
      "contractName": null,
      "contractAddress": "0x83e2654994264333e6fdfe2e43eb862866746041",
      "function": "safeTransferFrom(address,address,uint256)",
      "arguments": [
        "0x764D2F2e65153A08C5509235334B08Be2ae02915",
        "0xB0BF498288dff665e3129f63E1d010F9297205f1",
        "87"
      ],
      "transaction": {
        "from": "0x764d2f2e65153a08c5509235334b08be2ae02915",
        "to": "0x83e2654994264333e6fdfe2e43eb862866746041",
        "gas": "0x30852",
        "value": "0x0",
        "input": "0x42842e0e000000000000000000000000764d2f2e65153a08c5509235334b08be2ae02915000000000000000000000000b0bf498288dff665e3129f63e1d010f9297205f10000000000000000000000000000000000000000000000000000000000000057",
        "nonce": "0x669",
        "chainId": "0x1"
      },
      "additionalContracts": [],
      "isFixedGasLimit": false
    },
    {
      "hash": "0x8021e59b3e47f4abfb8a2b04934ad88e0e93e26eee78f1e273eec50acf1dcca7",
      "transactionType": "CALL",
      "contractName": null,
      "contractAddress": "0x83e2654994264333e6fdfe2e43eb862866746041",
      "function": "safeTransferFrom(address,address,uint256)",
      "arguments": [
        "0x764D2F2e65153A08C5509235334B08Be2ae02915",
        "0xB0BF498288dff665e3129f63E1d010F9297205f1",
        "88"
      ],
      "transaction": {
        "from": "0x764d2f2e65153a08c5509235334b08be2ae02915",
        "to": "0x83e2654994264333e6fdfe2e43eb862866746041",
        "gas": "0x30852",
        "value": "0x0",
        "input": "0x42842e0e000000000000000000000000764d2f2e65153a08c5509235334b08be2ae02915000000000000000000000000b0bf498288dff665e3129f63e1d010f9297205f10000000000000000000000000000000000000000000000000000000000000058",
        "nonce": "0x66a",
        "chainId": "0x1"
      },
      "additionalContracts": [],
      "isFixedGasLimit": false
    },
    {
      "hash": "0x2b7965969d4dcf558dcb1584653264c38e976f36d6438178df5e109c8b8a6d6a",
      "transactionType": "CALL",
      "contractName": null,
      "contractAddress": "0x83e2654994264333e6fdfe2e43eb862866746041",
      "function": "safeTransferFrom(address,address,uint256)",
      "arguments": [
        "0x764D2F2e65153A08C5509235334B08Be2ae02915",
        "0xB0BF498288dff665e3129f63E1d010F9297205f1",
        "89"
      ],
      "transaction": {
        "from": "0x764d2f2e65153a08c5509235334b08be2ae02915",
        "to": "0x83e2654994264333e6fdfe2e43eb862866746041",
        "gas": "0x30852",
        "value": "0x0",
        "input": "0x42842e0e000000000000000000000000764d2f2e65153a08c5509235334b08be2ae02915000000000000000000000000b0bf498288dff665e3129f63e1d010f9297205f10000000000000000000000000000000000000000000000000000000000000059",
        "nonce": "0x66b",
        "chainId": "0x1"
      },
      "additionalContracts": [],
      "isFixedGasLimit": false
    },
    {
      "hash": "0x90895b228734a183cf3ba94f6a9e7b24cd4e11bf41f59912e5de535995141b94",
      "transactionType": "CALL",
      "contractName": null,
      "contractAddress": "0x83e2654994264333e6fdfe2e43eb862866746041",
      "function": "safeTransferFrom(address,address,uint256)",
      "arguments": [
        "0x764D2F2e65153A08C5509235334B08Be2ae02915",
        "0xB0BF498288dff665e3129f63E1d010F9297205f1",
        "90"
      ],
      "transaction": {
        "from": "0x764d2f2e65153a08c5509235334b08be2ae02915",
        "to": "0x83e2654994264333e6fdfe2e43eb862866746041",
        "gas": "0x30852",
        "value": "0x0",
        "input": "0x42842e0e000000000000000000000000764d2f2e65153a08c5509235334b08be2ae02915000000000000000000000000b0bf498288dff665e3129f63e1d010f9297205f1000000000000000000000000000000000000000000000000000000000000005a",
        "nonce": "0x66c",
        "chainId": "0x1"
      },
      "additionalContracts": [],
      "isFixedGasLimit": false
    },
    {
      "hash": "0xa3e9aef8064c5b57ca79348d4a5655656fe10565079ece446270c6ea69e3fa63",
      "transactionType": "CALL",
      "contractName": null,
      "contractAddress": "0x83e2654994264333e6fdfe2e43eb862866746041",
      "function": "safeTransferFrom(address,address,uint256)",
      "arguments": [
        "0x764D2F2e65153A08C5509235334B08Be2ae02915",
        "0xB0BF498288dff665e3129f63E1d010F9297205f1",
        "94"
      ],
      "transaction": {
        "from": "0x764d2f2e65153a08c5509235334b08be2ae02915",
        "to": "0x83e2654994264333e6fdfe2e43eb862866746041",
        "gas": "0x30852",
        "value": "0x0",
        "input": "0x42842e0e000000000000000000000000764d2f2e65153a08c5509235334b08be2ae02915000000000000000000000000b0bf498288dff665e3129f63e1d010f9297205f1000000000000000000000000000000000000000000000000000000000000005e",
        "nonce": "0x66d",
        "chainId": "0x1"
      },
      "additionalContracts": [],
      "isFixedGasLimit": false
    },
    {
      "hash": "0x4a02f6c200a44cc128b15b159b69a28d1c4cdcddeb00b8ea40dd99a2a4576557",
      "transactionType": "CALL",
      "contractName": null,
      "contractAddress": "0x83e2654994264333e6fdfe2e43eb862866746041",
      "function": "safeTransferFrom(address,address,uint256)",
      "arguments": [
        "0x764D2F2e65153A08C5509235334B08Be2ae02915",
        "0xB0BF498288dff665e3129f63E1d010F9297205f1",
        "95"
      ],
      "transaction": {
        "from": "0x764d2f2e65153a08c5509235334b08be2ae02915",
        "to": "0x83e2654994264333e6fdfe2e43eb862866746041",
        "gas": "0x30852",
        "value": "0x0",
        "input": "0x42842e0e000000000000000000000000764d2f2e65153a08c5509235334b08be2ae02915000000000000000000000000b0bf498288dff665e3129f63e1d010f9297205f1000000000000000000000000000000000000000000000000000000000000005f",
        "nonce": "0x66e",
        "chainId": "0x1"
      },
      "additionalContracts": [],
      "isFixedGasLimit": false
    },
    {
      "hash": "0xb15ac9acf0b88d397cc7de3eeca2603d345b5746bc77208e53b2c3773b631561",
      "transactionType": "CALL",
      "contractName": null,
      "contractAddress": "0x83e2654994264333e6fdfe2e43eb862866746041",
      "function": "safeTransferFrom(address,address,uint256)",
      "arguments": [
        "0x764D2F2e65153A08C5509235334B08Be2ae02915",
        "0xB0BF498288dff665e3129f63E1d010F9297205f1",
        "96"
      ],
      "transaction": {
        "from": "0x764d2f2e65153a08c5509235334b08be2ae02915",
        "to": "0x83e2654994264333e6fdfe2e43eb862866746041",
        "gas": "0x30852",
        "value": "0x0",
        "input": "0x42842e0e000000000000000000000000764d2f2e65153a08c5509235334b08be2ae02915000000000000000000000000b0bf498288dff665e3129f63e1d010f9297205f10000000000000000000000000000000000000000000000000000000000000060",
        "nonce": "0x66f",
        "chainId": "0x1"
      },
      "additionalContracts": [],
      "isFixedGasLimit": false
    },
    {
      "hash": "0x222d0b857710d17c4b24d897b1ffeda159acaa3773f3d7127126bb57316d109b",
      "transactionType": "CALL",
      "contractName": null,
      "contractAddress": "0x83e2654994264333e6fdfe2e43eb862866746041",
      "function": "safeTransferFrom(address,address,uint256)",
      "arguments": [
        "0x764D2F2e65153A08C5509235334B08Be2ae02915",
        "0xB0BF498288dff665e3129f63E1d010F9297205f1",
        "97"
      ],
      "transaction": {
        "from": "0x764d2f2e65153a08c5509235334b08be2ae02915",
        "to": "0x83e2654994264333e6fdfe2e43eb862866746041",
        "gas": "0x30852",
        "value": "0x0",
        "input": "0x42842e0e000000000000000000000000764d2f2e65153a08c5509235334b08be2ae02915000000000000000000000000b0bf498288dff665e3129f63e1d010f9297205f10000000000000000000000000000000000000000000000000000000000000061",
        "nonce": "0x670",
        "chainId": "0x1"
      },
      "additionalContracts": [],
      "isFixedGasLimit": false
    },
    {
      "hash": "0x67cbc75a3f7c554e02bbfd82d62d60afdaa881ca6f9164e775ee12f4ed2d9b6e",
      "transactionType": "CALL",
      "contractName": null,
      "contractAddress": "0x83e2654994264333e6fdfe2e43eb862866746041",
      "function": "safeTransferFrom(address,address,uint256)",
      "arguments": [
        "0x764D2F2e65153A08C5509235334B08Be2ae02915",
        "0xB0BF498288dff665e3129f63E1d010F9297205f1",
        "98"
      ],
      "transaction": {
        "from": "0x764d2f2e65153a08c5509235334b08be2ae02915",
        "to": "0x83e2654994264333e6fdfe2e43eb862866746041",
        "gas": "0x30852",
        "value": "0x0",
        "input": "0x42842e0e000000000000000000000000764d2f2e65153a08c5509235334b08be2ae02915000000000000000000000000b0bf498288dff665e3129f63e1d010f9297205f10000000000000000000000000000000000000000000000000000000000000062",
        "nonce": "0x671",
        "chainId": "0x1"
      },
      "additionalContracts": [],
      "isFixedGasLimit": false
    }
  ],
  "receipts": [
    {
      "status": "0x1",
      "cumulativeGasUsed": "0x232a755",
      "logs": [
        {
          "address": "0x83e2654994264333e6fdfe2e43eb862866746041",
          "topics": [
            "0x8c5be1e5ebec7d5bd14f71427d1e84f3dd0314c0f7b2291e5b200ac8c7c3b925",
            "0x000000000000000000000000764d2f2e65153a08c5509235334b08be2ae02915",
            "0x0000000000000000000000000000000000000000000000000000000000000000",
            "0x0000000000000000000000000000000000000000000000000000000000000044"
          ],
          "data": "0x",
          "blockHash": "0x7154ae1270a3d5993188f035511b7edfeb44ee795358e1d08d0f4839626f8d0d",
          "blockNumber": "0x16c6cc8",
          "blockTimestamp": "0x6926f40b",
          "transactionHash": "0x86e2f1e5810c455d77e9ab39abb933ee9a96a09e18090be32762ec13634451d2",
          "transactionIndex": "0x8e",
          "logIndex": "0x215",
          "removed": false
        },
        {
          "address": "0x83e2654994264333e6fdfe2e43eb862866746041",
          "topics": [
            "0xddf252ad1be2c89b69c2b068fc378daa952ba7f163c4a11628f55a4df523b3ef",
            "0x000000000000000000000000764d2f2e65153a08c5509235334b08be2ae02915",
            "0x000000000000000000000000b0bf498288dff665e3129f63e1d010f9297205f1",
            "0x0000000000000000000000000000000000000000000000000000000000000044"
          ],
          "data": "0x",
          "blockHash": "0x7154ae1270a3d5993188f035511b7edfeb44ee795358e1d08d0f4839626f8d0d",
          "blockNumber": "0x16c6cc8",
          "blockTimestamp": "0x6926f40b",
          "transactionHash": "0x86e2f1e5810c455d77e9ab39abb933ee9a96a09e18090be32762ec13634451d2",
          "transactionIndex": "0x8e",
          "logIndex": "0x216",
          "removed": false
        },
        {
          "address": "0xb0bf498288dff665e3129f63e1d010f9297205f1",
          "topics": [
            "0x8d66bac62beb4b8362a44ffe462d923e3237556ade9a8a2508df6097004847da",
            "0x0000000000000000000000000000000000000000000000000000000000000044"
          ],
          "data": "0x000000000000000000000000000000000000000000000000000000006926f40b",
          "blockHash": "0x7154ae1270a3d5993188f035511b7edfeb44ee795358e1d08d0f4839626f8d0d",
          "blockNumber": "0x16c6cc8",
          "blockTimestamp": "0x6926f40b",
          "transactionHash": "0x86e2f1e5810c455d77e9ab39abb933ee9a96a09e18090be32762ec13634451d2",
          "transactionIndex": "0x8e",
          "logIndex": "0x217",
          "removed": false
        }
      ],
      "logsBloom": "0x00000000000000000000000000000000000000000100000000000000000000000000000000800000000000000000000000000000100000002000000000200000000000000000000004000008000200000000000000000000000000000000000000000000028000000000000000000800000008000000000000000010000000000000000000400000000000004000000000000000000000000000000400000000020000000000000000400000000000000000000000000000000000000000000000000002000000000000000000000000000000000200000000000400000020000010000000000080000000000000000000080000800000000000000008000000",
      "type": "0x2",
      "transactionHash": "0x86e2f1e5810c455d77e9ab39abb933ee9a96a09e18090be32762ec13634451d2",
      "transactionIndex": "0x8e",
      "blockHash": "0x7154ae1270a3d5993188f035511b7edfeb44ee795358e1d08d0f4839626f8d0d",
      "blockNumber": "0x16c6cc8",
      "gasUsed": "0x212d2",
      "effectiveGasPrice": "0x3201894",
      "from": "0x764d2f2e65153a08c5509235334b08be2ae02915",
      "to": "0x83e2654994264333e6fdfe2e43eb862866746041",
      "contractAddress": null
    },
    {
      "status": "0x1",
      "cumulativeGasUsed": "0xee5f56",
      "logs": [
        {
          "address": "0x83e2654994264333e6fdfe2e43eb862866746041",
          "topics": [
            "0x8c5be1e5ebec7d5bd14f71427d1e84f3dd0314c0f7b2291e5b200ac8c7c3b925",
            "0x000000000000000000000000764d2f2e65153a08c5509235334b08be2ae02915",
            "0x0000000000000000000000000000000000000000000000000000000000000000",
            "0x0000000000000000000000000000000000000000000000000000000000000045"
          ],
          "data": "0x",
          "blockHash": "0x1ed8ca21733e71a9ebd6dc6ef0e2bf112abff0c56de26248443989bd3d9bc839",
          "blockNumber": "0x16c6cc9",
          "blockTimestamp": "0x6926f417",
          "transactionHash": "0xfdfbc990708849cccb8a151e5843b49db79c641b1ab46ae25cff4f7fa2169df0",
          "transactionIndex": "0x9a",
          "logIndex": "0x1e4",
          "removed": false
        },
        {
          "address": "0x83e2654994264333e6fdfe2e43eb862866746041",
          "topics": [
            "0xddf252ad1be2c89b69c2b068fc378daa952ba7f163c4a11628f55a4df523b3ef",
            "0x000000000000000000000000764d2f2e65153a08c5509235334b08be2ae02915",
            "0x000000000000000000000000b0bf498288dff665e3129f63e1d010f9297205f1",
            "0x0000000000000000000000000000000000000000000000000000000000000045"
          ],
          "data": "0x",
          "blockHash": "0x1ed8ca21733e71a9ebd6dc6ef0e2bf112abff0c56de26248443989bd3d9bc839",
          "blockNumber": "0x16c6cc9",
          "blockTimestamp": "0x6926f417",
          "transactionHash": "0xfdfbc990708849cccb8a151e5843b49db79c641b1ab46ae25cff4f7fa2169df0",
          "transactionIndex": "0x9a",
          "logIndex": "0x1e5",
          "removed": false
        },
        {
          "address": "0xb0bf498288dff665e3129f63e1d010f9297205f1",
          "topics": [
            "0x8d66bac62beb4b8362a44ffe462d923e3237556ade9a8a2508df6097004847da",
            "0x0000000000000000000000000000000000000000000000000000000000000045"
          ],
          "data": "0x000000000000000000000000000000000000000000000000000000006926f417",
          "blockHash": "0x1ed8ca21733e71a9ebd6dc6ef0e2bf112abff0c56de26248443989bd3d9bc839",
          "blockNumber": "0x16c6cc9",
          "blockTimestamp": "0x6926f417",
          "transactionHash": "0xfdfbc990708849cccb8a151e5843b49db79c641b1ab46ae25cff4f7fa2169df0",
          "transactionIndex": "0x9a",
          "logIndex": "0x1e6",
          "removed": false
        }
      ],
      "logsBloom": "0x00000000000010000000000000000000000000000100000000000000000000000000000000800000000000000000000000000000100000002000000000200000000000000000000004000008000200000000000000000000000000000000000000000000028000000000000000000800000008000000000000000010000000000000000000000000000000004000000000000000000000000000000000000000020000000000000000400000000000000000000000000000000000000000000000000002000000000000000000000000004000000000000000000400000020000010000000000080000000000000000000080000800000000000000008000400",
      "type": "0x2",
      "transactionHash": "0xfdfbc990708849cccb8a151e5843b49db79c641b1ab46ae25cff4f7fa2169df0",
      "transactionIndex": "0x9a",
      "blockHash": "0x1ed8ca21733e71a9ebd6dc6ef0e2bf112abff0c56de26248443989bd3d9bc839",
      "blockNumber": "0x16c6cc9",
      "gasUsed": "0x212d2",
      "effectiveGasPrice": "0x33fbab3",
      "from": "0x764d2f2e65153a08c5509235334b08be2ae02915",
      "to": "0x83e2654994264333e6fdfe2e43eb862866746041",
      "contractAddress": null
    },
    {
      "status": "0x1",
      "cumulativeGasUsed": "0x2fc0e78",
      "logs": [
        {
          "address": "0x83e2654994264333e6fdfe2e43eb862866746041",
          "topics": [
            "0x8c5be1e5ebec7d5bd14f71427d1e84f3dd0314c0f7b2291e5b200ac8c7c3b925",
            "0x000000000000000000000000764d2f2e65153a08c5509235334b08be2ae02915",
            "0x0000000000000000000000000000000000000000000000000000000000000000",
            "0x0000000000000000000000000000000000000000000000000000000000000046"
          ],
          "data": "0x",
          "blockHash": "0x68342ce0f4b1e76afd22534aafc15384cab73d6b3a1703196b7eebd24e44294c",
          "blockNumber": "0x16c6ccb",
          "blockTimestamp": "0x6926f42f",
          "transactionHash": "0x0e4691b2569fd91f76e52b8efd1c18e285051d9d1ae75558edeb5bb0004bb96c",
          "transactionIndex": "0xde",
          "logIndex": "0x2a4",
          "removed": false
        },
        {
          "address": "0x83e2654994264333e6fdfe2e43eb862866746041",
          "topics": [
            "0xddf252ad1be2c89b69c2b068fc378daa952ba7f163c4a11628f55a4df523b3ef",
            "0x000000000000000000000000764d2f2e65153a08c5509235334b08be2ae02915",
            "0x000000000000000000000000b0bf498288dff665e3129f63e1d010f9297205f1",
            "0x0000000000000000000000000000000000000000000000000000000000000046"
          ],
          "data": "0x",
          "blockHash": "0x68342ce0f4b1e76afd22534aafc15384cab73d6b3a1703196b7eebd24e44294c",
          "blockNumber": "0x16c6ccb",
          "blockTimestamp": "0x6926f42f",
          "transactionHash": "0x0e4691b2569fd91f76e52b8efd1c18e285051d9d1ae75558edeb5bb0004bb96c",
          "transactionIndex": "0xde",
          "logIndex": "0x2a5",
          "removed": false
        },
        {
          "address": "0xb0bf498288dff665e3129f63e1d010f9297205f1",
          "topics": [
            "0x8d66bac62beb4b8362a44ffe462d923e3237556ade9a8a2508df6097004847da",
            "0x0000000000000000000000000000000000000000000000000000000000000046"
          ],
          "data": "0x000000000000000000000000000000000000000000000000000000006926f42f",
          "blockHash": "0x68342ce0f4b1e76afd22534aafc15384cab73d6b3a1703196b7eebd24e44294c",
          "blockNumber": "0x16c6ccb",
          "blockTimestamp": "0x6926f42f",
          "transactionHash": "0x0e4691b2569fd91f76e52b8efd1c18e285051d9d1ae75558edeb5bb0004bb96c",
          "transactionIndex": "0xde",
          "logIndex": "0x2a6",
          "removed": false
        }
      ],
      "logsBloom": "0x00200000000000000000000000000000000000000100000000000000000000000000000000800000000000000000000000000000100000002000000000200000000000000000000004000008000200000000000000000000000000000000000000000000028000000000000000000800000008000000000000000010000000000000000000000000000000004000000000000000000000000000000000000000020000000000000000400000000000400000000000000000000000000000000040000002000000000000000000000000000000000000000000000400000020000010000000000080000000000000000000080000800000000000000008000000",
      "type": "0x2",
      "transactionHash": "0x0e4691b2569fd91f76e52b8efd1c18e285051d9d1ae75558edeb5bb0004bb96c",
      "transactionIndex": "0xde",
      "blockHash": "0x68342ce0f4b1e76afd22534aafc15384cab73d6b3a1703196b7eebd24e44294c",
      "blockNumber": "0x16c6ccb",
      "gasUsed": "0x212d2",
      "effectiveGasPrice": "0x3110897",
      "from": "0x764d2f2e65153a08c5509235334b08be2ae02915",
      "to": "0x83e2654994264333e6fdfe2e43eb862866746041",
      "contractAddress": null
    },
    {
      "status": "0x1",
      "cumulativeGasUsed": "0x1279297",
      "logs": [
        {
          "address": "0x83e2654994264333e6fdfe2e43eb862866746041",
          "topics": [
            "0x8c5be1e5ebec7d5bd14f71427d1e84f3dd0314c0f7b2291e5b200ac8c7c3b925",
            "0x000000000000000000000000764d2f2e65153a08c5509235334b08be2ae02915",
            "0x0000000000000000000000000000000000000000000000000000000000000000",
            "0x0000000000000000000000000000000000000000000000000000000000000047"
          ],
          "data": "0x",
          "blockHash": "0xd69912506af4c3e033f6c5e89e6fea205889934734c7b20a4be38f43d4b3faec",
          "blockNumber": "0x16c6cce",
          "blockTimestamp": "0x6926f453",
          "transactionHash": "0x5b83eb66090b11142ea1e4b3fcac4b87cafa97f7389ba5452937e7515a639463",
          "transactionIndex": "0xf9",
          "logIndex": "0x1f4",
          "removed": false
        },
        {
          "address": "0x83e2654994264333e6fdfe2e43eb862866746041",
          "topics": [
            "0xddf252ad1be2c89b69c2b068fc378daa952ba7f163c4a11628f55a4df523b3ef",
            "0x000000000000000000000000764d2f2e65153a08c5509235334b08be2ae02915",
            "0x000000000000000000000000b0bf498288dff665e3129f63e1d010f9297205f1",
            "0x0000000000000000000000000000000000000000000000000000000000000047"
          ],
          "data": "0x",
          "blockHash": "0xd69912506af4c3e033f6c5e89e6fea205889934734c7b20a4be38f43d4b3faec",
          "blockNumber": "0x16c6cce",
          "blockTimestamp": "0x6926f453",
          "transactionHash": "0x5b83eb66090b11142ea1e4b3fcac4b87cafa97f7389ba5452937e7515a639463",
          "transactionIndex": "0xf9",
          "logIndex": "0x1f5",
          "removed": false
        },
        {
          "address": "0xb0bf498288dff665e3129f63e1d010f9297205f1",
          "topics": [
            "0x8d66bac62beb4b8362a44ffe462d923e3237556ade9a8a2508df6097004847da",
            "0x0000000000000000000000000000000000000000000000000000000000000047"
          ],
          "data": "0x000000000000000000000000000000000000000000000000000000006926f453",
          "blockHash": "0xd69912506af4c3e033f6c5e89e6fea205889934734c7b20a4be38f43d4b3faec",
          "blockNumber": "0x16c6cce",
          "blockTimestamp": "0x6926f453",
          "transactionHash": "0x5b83eb66090b11142ea1e4b3fcac4b87cafa97f7389ba5452937e7515a639463",
          "transactionIndex": "0xf9",
          "logIndex": "0x1f6",
          "removed": false
        }
      ],
      "logsBloom": "0x00000000000000000000000000000000000000000100000000000000000000000000000000800000000000000000000000000000100000002000001000200000000000000000000004000008000200000000000000000000000000000000000000000000028000000000000000000800000008000000000010000010000000000000000000000000000000004000000000000000000000000000000000000000020000000000000000400000000000000000000000000000000000000000000000000002000000000000000000000100000000000000000000000400000020000010000000000080000000000000000000080000800000000000000008000000",
      "type": "0x2",
      "transactionHash": "0x5b83eb66090b11142ea1e4b3fcac4b87cafa97f7389ba5452937e7515a639463",
      "transactionIndex": "0xf9",
      "blockHash": "0xd69912506af4c3e033f6c5e89e6fea205889934734c7b20a4be38f43d4b3faec",
      "blockNumber": "0x16c6cce",
      "gasUsed": "0x212d2",
      "effectiveGasPrice": "0x36404d2",
      "from": "0x764d2f2e65153a08c5509235334b08be2ae02915",
      "to": "0x83e2654994264333e6fdfe2e43eb862866746041",
      "contractAddress": null
    },
    {
      "status": "0x1",
      "cumulativeGasUsed": "0x167af6a",
      "logs": [
        {
          "address": "0x83e2654994264333e6fdfe2e43eb862866746041",
          "topics": [
            "0x8c5be1e5ebec7d5bd14f71427d1e84f3dd0314c0f7b2291e5b200ac8c7c3b925",
            "0x000000000000000000000000764d2f2e65153a08c5509235334b08be2ae02915",
            "0x0000000000000000000000000000000000000000000000000000000000000000",
            "0x0000000000000000000000000000000000000000000000000000000000000048"
          ],
          "data": "0x",
          "blockHash": "0x8095b3765766cea1cdf40c92f964613c641eb8ddd39a4618f7e04c3c1027ac84",
          "blockNumber": "0x16c6ccf",
          "blockTimestamp": "0x6926f45f",
          "transactionHash": "0x21e37906b55ed43d68d38425e4774c65d86a080d6e93471a270b3da96fdbb0ef",
          "transactionIndex": "0xd2",
          "logIndex": "0x239",
          "removed": false
        },
        {
          "address": "0x83e2654994264333e6fdfe2e43eb862866746041",
          "topics": [
            "0xddf252ad1be2c89b69c2b068fc378daa952ba7f163c4a11628f55a4df523b3ef",
            "0x000000000000000000000000764d2f2e65153a08c5509235334b08be2ae02915",
            "0x000000000000000000000000b0bf498288dff665e3129f63e1d010f9297205f1",
            "0x0000000000000000000000000000000000000000000000000000000000000048"
          ],
          "data": "0x",
          "blockHash": "0x8095b3765766cea1cdf40c92f964613c641eb8ddd39a4618f7e04c3c1027ac84",
          "blockNumber": "0x16c6ccf",
          "blockTimestamp": "0x6926f45f",
          "transactionHash": "0x21e37906b55ed43d68d38425e4774c65d86a080d6e93471a270b3da96fdbb0ef",
          "transactionIndex": "0xd2",
          "logIndex": "0x23a",
          "removed": false
        },
        {
          "address": "0xb0bf498288dff665e3129f63e1d010f9297205f1",
          "topics": [
            "0x8d66bac62beb4b8362a44ffe462d923e3237556ade9a8a2508df6097004847da",
            "0x0000000000000000000000000000000000000000000000000000000000000048"
          ],
          "data": "0x000000000000000000000000000000000000000000000000000000006926f45f",
          "blockHash": "0x8095b3765766cea1cdf40c92f964613c641eb8ddd39a4618f7e04c3c1027ac84",
          "blockNumber": "0x16c6ccf",
          "blockTimestamp": "0x6926f45f",
          "transactionHash": "0x21e37906b55ed43d68d38425e4774c65d86a080d6e93471a270b3da96fdbb0ef",
          "transactionIndex": "0xd2",
          "logIndex": "0x23b",
          "removed": false
        }
      ],
      "logsBloom": "0x00000000000000000000000000000000000080000100000000000000000000000000000000800000000000000000000000000000100000002000000000200000000000000000000004000008000200000000000000000000000000000000001000000000028000000000000000000800000008000000000000000010000000000000000000000000000000004000000000000000000000000000000000000000020000000000000000400000000000000000000000000000000000000000000000000002000000000000000000000000000000000040000000000400000020000010000000000080000000000000000000080000800000000000000008000000",
      "type": "0x2",
      "transactionHash": "0x21e37906b55ed43d68d38425e4774c65d86a080d6e93471a270b3da96fdbb0ef",
      "transactionIndex": "0xd2",
      "blockHash": "0x8095b3765766cea1cdf40c92f964613c641eb8ddd39a4618f7e04c3c1027ac84",
      "blockNumber": "0x16c6ccf",
      "gasUsed": "0x212d2",
      "effectiveGasPrice": "0x33fd354",
      "from": "0x764d2f2e65153a08c5509235334b08be2ae02915",
      "to": "0x83e2654994264333e6fdfe2e43eb862866746041",
      "contractAddress": null
    },
    {
      "status": "0x1",
      "cumulativeGasUsed": "0xef8712",
      "logs": [
        {
          "address": "0x83e2654994264333e6fdfe2e43eb862866746041",
          "topics": [
            "0x8c5be1e5ebec7d5bd14f71427d1e84f3dd0314c0f7b2291e5b200ac8c7c3b925",
            "0x000000000000000000000000764d2f2e65153a08c5509235334b08be2ae02915",
            "0x0000000000000000000000000000000000000000000000000000000000000000",
            "0x0000000000000000000000000000000000000000000000000000000000000049"
          ],
          "data": "0x",
          "blockHash": "0x566eb4fa72c7fbd7e862c9ddd7974679da9d1b6da7f0924bd724bf8be2f277a2",
          "blockNumber": "0x16c6cd0",
          "blockTimestamp": "0x6926f46b",
          "transactionHash": "0xdaf312bb513372be9ae283729724011b97d09e3859c6394e7aa35d4725842a63",
          "transactionIndex": "0xac",
          "logIndex": "0x209",
          "removed": false
        },
        {
          "address": "0x83e2654994264333e6fdfe2e43eb862866746041",
          "topics": [
            "0xddf252ad1be2c89b69c2b068fc378daa952ba7f163c4a11628f55a4df523b3ef",
            "0x000000000000000000000000764d2f2e65153a08c5509235334b08be2ae02915",
            "0x000000000000000000000000b0bf498288dff665e3129f63e1d010f9297205f1",
            "0x0000000000000000000000000000000000000000000000000000000000000049"
          ],
          "data": "0x",
          "blockHash": "0x566eb4fa72c7fbd7e862c9ddd7974679da9d1b6da7f0924bd724bf8be2f277a2",
          "blockNumber": "0x16c6cd0",
          "blockTimestamp": "0x6926f46b",
          "transactionHash": "0xdaf312bb513372be9ae283729724011b97d09e3859c6394e7aa35d4725842a63",
          "transactionIndex": "0xac",
          "logIndex": "0x20a",
          "removed": false
        },
        {
          "address": "0xb0bf498288dff665e3129f63e1d010f9297205f1",
          "topics": [
            "0x8d66bac62beb4b8362a44ffe462d923e3237556ade9a8a2508df6097004847da",
            "0x0000000000000000000000000000000000000000000000000000000000000049"
          ],
          "data": "0x000000000000000000000000000000000000000000000000000000006926f46b",
          "blockHash": "0x566eb4fa72c7fbd7e862c9ddd7974679da9d1b6da7f0924bd724bf8be2f277a2",
          "blockNumber": "0x16c6cd0",
          "blockTimestamp": "0x6926f46b",
          "transactionHash": "0xdaf312bb513372be9ae283729724011b97d09e3859c6394e7aa35d4725842a63",
          "transactionIndex": "0xac",
          "logIndex": "0x20b",
          "removed": false
        }
      ],
      "logsBloom": "0x00000010000000000000000000000000000000000100000000000000000000000000000000800000000000000000000000000000100000002000000000200000000000000000000004000008000200000000000000000000000000000000000000000200028000000000000000000800000008000000000000000010000000000000000000000000000000004000000000000000000000000000000000000000022000000000000000400000000000000000000000000000000000000000000000000002000000000000000000000000000000000000000000000400000020000010000000000080000000000000000000080000800000000000000008000000",
      "type": "0x2",
      "transactionHash": "0xdaf312bb513372be9ae283729724011b97d09e3859c6394e7aa35d4725842a63",
      "transactionIndex": "0xac",
      "blockHash": "0x566eb4fa72c7fbd7e862c9ddd7974679da9d1b6da7f0924bd724bf8be2f277a2",
      "blockNumber": "0x16c6cd0",
      "gasUsed": "0x212d2",
      "effectiveGasPrice": "0x33648e5",
      "from": "0x764d2f2e65153a08c5509235334b08be2ae02915",
      "to": "0x83e2654994264333e6fdfe2e43eb862866746041",
      "contractAddress": null
    },
    {
      "status": "0x1",
      "cumulativeGasUsed": "0x2b136b8",
      "logs": [
        {
          "address": "0x83e2654994264333e6fdfe2e43eb862866746041",
          "topics": [
            "0x8c5be1e5ebec7d5bd14f71427d1e84f3dd0314c0f7b2291e5b200ac8c7c3b925",
            "0x000000000000000000000000764d2f2e65153a08c5509235334b08be2ae02915",
            "0x0000000000000000000000000000000000000000000000000000000000000000",
            "0x000000000000000000000000000000000000000000000000000000000000004a"
          ],
          "data": "0x",
          "blockHash": "0xc4e2576fb98dab872bd9f7cbbd07026215aad2a0ee76d6ea5d2f5eab68bf2882",
          "blockNumber": "0x16c6cd1",
          "blockTimestamp": "0x6926f477",
          "transactionHash": "0x35363fd57dba36b87a1f97ee95ca6b086d8addfbb314f496110159402e186ab3",
          "transactionIndex": "0x12e",
          "logIndex": "0x38c",
          "removed": false
        },
        {
          "address": "0x83e2654994264333e6fdfe2e43eb862866746041",
          "topics": [
            "0xddf252ad1be2c89b69c2b068fc378daa952ba7f163c4a11628f55a4df523b3ef",
            "0x000000000000000000000000764d2f2e65153a08c5509235334b08be2ae02915",
            "0x000000000000000000000000b0bf498288dff665e3129f63e1d010f9297205f1",
            "0x000000000000000000000000000000000000000000000000000000000000004a"
          ],
          "data": "0x",
          "blockHash": "0xc4e2576fb98dab872bd9f7cbbd07026215aad2a0ee76d6ea5d2f5eab68bf2882",
          "blockNumber": "0x16c6cd1",
          "blockTimestamp": "0x6926f477",
          "transactionHash": "0x35363fd57dba36b87a1f97ee95ca6b086d8addfbb314f496110159402e186ab3",
          "transactionIndex": "0x12e",
          "logIndex": "0x38d",
          "removed": false
        },
        {
          "address": "0xb0bf498288dff665e3129f63e1d010f9297205f1",
          "topics": [
            "0x8d66bac62beb4b8362a44ffe462d923e3237556ade9a8a2508df6097004847da",
            "0x000000000000000000000000000000000000000000000000000000000000004a"
          ],
          "data": "0x000000000000000000000000000000000000000000000000000000006926f477",
          "blockHash": "0xc4e2576fb98dab872bd9f7cbbd07026215aad2a0ee76d6ea5d2f5eab68bf2882",
          "blockNumber": "0x16c6cd1",
          "blockTimestamp": "0x6926f477",
          "transactionHash": "0x35363fd57dba36b87a1f97ee95ca6b086d8addfbb314f496110159402e186ab3",
          "transactionIndex": "0x12e",
          "logIndex": "0x38e",
          "removed": false
        }
      ],
      "logsBloom": "0x00000000000000000000000000000000000000000100000000000000000000000000000000800000000000000000000000000000100000002000000000200000000000000000000004000008000200000000000000000000000000000000000000000000028000200000000000000800000008000000000000000010000000000000000000000000000000004000000000000000000000000000000000000000020000000000000000400000000000000000000000000000000000000400000000000002000000000000000000000000000000000000000000000400000020001010000000000080000000000000000000080000800000000000000008000000",
      "type": "0x2",
      "transactionHash": "0x35363fd57dba36b87a1f97ee95ca6b086d8addfbb314f496110159402e186ab3",
      "transactionIndex": "0x12e",
      "blockHash": "0xc4e2576fb98dab872bd9f7cbbd07026215aad2a0ee76d6ea5d2f5eab68bf2882",
      "blockNumber": "0x16c6cd1",
      "gasUsed": "0x212d2",
      "effectiveGasPrice": "0x30cd806",
      "from": "0x764d2f2e65153a08c5509235334b08be2ae02915",
      "to": "0x83e2654994264333e6fdfe2e43eb862866746041",
      "contractAddress": null
    },
    {
      "status": "0x1",
      "cumulativeGasUsed": "0x8b6811",
      "logs": [
        {
          "address": "0x83e2654994264333e6fdfe2e43eb862866746041",
          "topics": [
            "0x8c5be1e5ebec7d5bd14f71427d1e84f3dd0314c0f7b2291e5b200ac8c7c3b925",
            "0x000000000000000000000000764d2f2e65153a08c5509235334b08be2ae02915",
            "0x0000000000000000000000000000000000000000000000000000000000000000",
            "0x000000000000000000000000000000000000000000000000000000000000004b"
          ],
          "data": "0x",
          "blockHash": "0xace8bfc7e9950277c791d2158bfe6c821dae285a674aaddb6acc703c5ed04cd1",
          "blockNumber": "0x16c6cd2",
          "blockTimestamp": "0x6926f483",
          "transactionHash": "0x795aaa9db8b855eb1534cbb6f1e501054c425f849065326b18893c9fed29c7ee",
          "transactionIndex": "0x76",
          "logIndex": "0xd2",
          "removed": false
        },
        {
          "address": "0x83e2654994264333e6fdfe2e43eb862866746041",
          "topics": [
            "0xddf252ad1be2c89b69c2b068fc378daa952ba7f163c4a11628f55a4df523b3ef",
            "0x000000000000000000000000764d2f2e65153a08c5509235334b08be2ae02915",
            "0x000000000000000000000000b0bf498288dff665e3129f63e1d010f9297205f1",
            "0x000000000000000000000000000000000000000000000000000000000000004b"
          ],
          "data": "0x",
          "blockHash": "0xace8bfc7e9950277c791d2158bfe6c821dae285a674aaddb6acc703c5ed04cd1",
          "blockNumber": "0x16c6cd2",
          "blockTimestamp": "0x6926f483",
          "transactionHash": "0x795aaa9db8b855eb1534cbb6f1e501054c425f849065326b18893c9fed29c7ee",
          "transactionIndex": "0x76",
          "logIndex": "0xd3",
          "removed": false
        },
        {
          "address": "0xb0bf498288dff665e3129f63e1d010f9297205f1",
          "topics": [
            "0x8d66bac62beb4b8362a44ffe462d923e3237556ade9a8a2508df6097004847da",
            "0x000000000000000000000000000000000000000000000000000000000000004b"
          ],
          "data": "0x000000000000000000000000000000000000000000000000000000006926f483",
          "blockHash": "0xace8bfc7e9950277c791d2158bfe6c821dae285a674aaddb6acc703c5ed04cd1",
          "blockNumber": "0x16c6cd2",
          "blockTimestamp": "0x6926f483",
          "transactionHash": "0x795aaa9db8b855eb1534cbb6f1e501054c425f849065326b18893c9fed29c7ee",
          "transactionIndex": "0x76",
          "logIndex": "0xd4",
          "removed": false
        }
      ],
      "logsBloom": "0x00000000000000000001000000000000000000000100000000000000002000000000000000800000000000000000000000000000100000002000000000200000000000000000000004000008000200000000000000000000000000000000000000000000028000000000000000000800000008000000000000000010000000000000000000000000000000004000000000000000000000000000000000000000020000000000000000400000000400000000000000000000000000000000000000000002000000000000000000000000000000000000000000000400000020000010000000000080000000000000000000080000800000000000000008000000",
      "type": "0x2",
      "transactionHash": "0x795aaa9db8b855eb1534cbb6f1e501054c425f849065326b18893c9fed29c7ee",
      "transactionIndex": "0x76",
      "blockHash": "0xace8bfc7e9950277c791d2158bfe6c821dae285a674aaddb6acc703c5ed04cd1",
      "blockNumber": "0x16c6cd2",
      "gasUsed": "0x212d2",
      "effectiveGasPrice": "0x34201d6",
      "from": "0x764d2f2e65153a08c5509235334b08be2ae02915",
      "to": "0x83e2654994264333e6fdfe2e43eb862866746041",
      "contractAddress": null
    },
    {
      "status": "0x1",
      "cumulativeGasUsed": "0x24181f7",
      "logs": [
        {
          "address": "0x83e2654994264333e6fdfe2e43eb862866746041",
          "topics": [
            "0x8c5be1e5ebec7d5bd14f71427d1e84f3dd0314c0f7b2291e5b200ac8c7c3b925",
            "0x000000000000000000000000764d2f2e65153a08c5509235334b08be2ae02915",
            "0x0000000000000000000000000000000000000000000000000000000000000000",
            "0x000000000000000000000000000000000000000000000000000000000000004c"
          ],
          "data": "0x",
          "blockHash": "0x0dc748dde0acfa3b19d8a622c468618b2e51c2bd70ede413408a1596cec17df6",
          "blockNumber": "0x16c6cd3",
          "blockTimestamp": "0x6926f48f",
          "transactionHash": "0x6f397a33b502163e852a81d03c7a51de7ad5cf742a92742c65a352dafb96104e",
          "transactionIndex": "0xe3",
          "logIndex": "0x24a",
          "removed": false
        },
        {
          "address": "0x83e2654994264333e6fdfe2e43eb862866746041",
          "topics": [
            "0xddf252ad1be2c89b69c2b068fc378daa952ba7f163c4a11628f55a4df523b3ef",
            "0x000000000000000000000000764d2f2e65153a08c5509235334b08be2ae02915",
            "0x000000000000000000000000b0bf498288dff665e3129f63e1d010f9297205f1",
            "0x000000000000000000000000000000000000000000000000000000000000004c"
          ],
          "data": "0x",
          "blockHash": "0x0dc748dde0acfa3b19d8a622c468618b2e51c2bd70ede413408a1596cec17df6",
          "blockNumber": "0x16c6cd3",
          "blockTimestamp": "0x6926f48f",
          "transactionHash": "0x6f397a33b502163e852a81d03c7a51de7ad5cf742a92742c65a352dafb96104e",
          "transactionIndex": "0xe3",
          "logIndex": "0x24b",
          "removed": false
        },
        {
          "address": "0xb0bf498288dff665e3129f63e1d010f9297205f1",
          "topics": [
            "0x8d66bac62beb4b8362a44ffe462d923e3237556ade9a8a2508df6097004847da",
            "0x000000000000000000000000000000000000000000000000000000000000004c"
          ],
          "data": "0x000000000000000000000000000000000000000000000000000000006926f48f",
          "blockHash": "0x0dc748dde0acfa3b19d8a622c468618b2e51c2bd70ede413408a1596cec17df6",
          "blockNumber": "0x16c6cd3",
          "blockTimestamp": "0x6926f48f",
          "transactionHash": "0x6f397a33b502163e852a81d03c7a51de7ad5cf742a92742c65a352dafb96104e",
          "transactionIndex": "0xe3",
          "logIndex": "0x24c",
          "removed": false
        }
      ],
      "logsBloom": "0x00000000000000000000000000000000000000000100000000000000000000000000000000800000000000000000000000000000100000002000000000200000000000000000000004000008000200000000000000008000800000000000000000000000028000000000000000000800000008000000000000000010000000000000000000000000000000004000000000000000000000000000000000000000020000000000000000400000000000200000000000000000000000000000000000000002000000000000000000000000000000000000000000000400000020000010000000000080000000000000000000080000800000000000000008000000",
      "type": "0x2",
      "transactionHash": "0x6f397a33b502163e852a81d03c7a51de7ad5cf742a92742c65a352dafb96104e",
      "transactionIndex": "0xe3",
      "blockHash": "0x0dc748dde0acfa3b19d8a622c468618b2e51c2bd70ede413408a1596cec17df6",
      "blockNumber": "0x16c6cd3",
      "gasUsed": "0x212d2",
      "effectiveGasPrice": "0x31cde7a",
      "from": "0x764d2f2e65153a08c5509235334b08be2ae02915",
      "to": "0x83e2654994264333e6fdfe2e43eb862866746041",
      "contractAddress": null
    },
    {
      "status": "0x1",
      "cumulativeGasUsed": "0x114d8f9",
      "logs": [
        {
          "address": "0x83e2654994264333e6fdfe2e43eb862866746041",
          "topics": [
            "0x8c5be1e5ebec7d5bd14f71427d1e84f3dd0314c0f7b2291e5b200ac8c7c3b925",
            "0x000000000000000000000000764d2f2e65153a08c5509235334b08be2ae02915",
            "0x0000000000000000000000000000000000000000000000000000000000000000",
            "0x000000000000000000000000000000000000000000000000000000000000004e"
          ],
          "data": "0x",
          "blockHash": "0x4c01f72eb46bfbfb8eccae98d9f705775ff7319cc4a5b65b9b56548a0952a41d",
          "blockNumber": "0x16c6cd4",
          "blockTimestamp": "0x6926f49b",
          "transactionHash": "0xf64e59b0ba3bc3ac80886b2ad198a345836f73926ff5b5b7766f2f62c928d3e4",
          "transactionIndex": "0xbe",
          "logIndex": "0x1a7",
          "removed": false
        },
        {
          "address": "0x83e2654994264333e6fdfe2e43eb862866746041",
          "topics": [
            "0xddf252ad1be2c89b69c2b068fc378daa952ba7f163c4a11628f55a4df523b3ef",
            "0x000000000000000000000000764d2f2e65153a08c5509235334b08be2ae02915",
            "0x000000000000000000000000b0bf498288dff665e3129f63e1d010f9297205f1",
            "0x000000000000000000000000000000000000000000000000000000000000004e"
          ],
          "data": "0x",
          "blockHash": "0x4c01f72eb46bfbfb8eccae98d9f705775ff7319cc4a5b65b9b56548a0952a41d",
          "blockNumber": "0x16c6cd4",
          "blockTimestamp": "0x6926f49b",
          "transactionHash": "0xf64e59b0ba3bc3ac80886b2ad198a345836f73926ff5b5b7766f2f62c928d3e4",
          "transactionIndex": "0xbe",
          "logIndex": "0x1a8",
          "removed": false
        },
        {
          "address": "0xb0bf498288dff665e3129f63e1d010f9297205f1",
          "topics": [
            "0x8d66bac62beb4b8362a44ffe462d923e3237556ade9a8a2508df6097004847da",
            "0x000000000000000000000000000000000000000000000000000000000000004e"
          ],
          "data": "0x000000000000000000000000000000000000000000000000000000006926f49b",
          "blockHash": "0x4c01f72eb46bfbfb8eccae98d9f705775ff7319cc4a5b65b9b56548a0952a41d",
          "blockNumber": "0x16c6cd4",
          "blockTimestamp": "0x6926f49b",
          "transactionHash": "0xf64e59b0ba3bc3ac80886b2ad198a345836f73926ff5b5b7766f2f62c928d3e4",
          "transactionIndex": "0xbe",
          "logIndex": "0x1a9",
          "removed": false
        }
      ],
      "logsBloom": "0x00000000000000000000000000000000000000000100000000000000000000000000000000800000000000000000000000000000100000002000000000200000000000000000000004000008000200000000000000000000000000000000000000000000028000000000000000000810000008000000000000000010000000000000000000000000000000004000000000000020000000000000000000000000020000000000000000400000000000000000000000000000000000000000000000000002000000000000000000000000000000000000000000000400000020000010000000000080000000000000000000080000800000000000000008000000",
      "type": "0x2",
      "transactionHash": "0xf64e59b0ba3bc3ac80886b2ad198a345836f73926ff5b5b7766f2f62c928d3e4",
      "transactionIndex": "0xbe",
      "blockHash": "0x4c01f72eb46bfbfb8eccae98d9f705775ff7319cc4a5b65b9b56548a0952a41d",
      "blockNumber": "0x16c6cd4",
      "gasUsed": "0x212d2",
      "effectiveGasPrice": "0x3474976",
      "from": "0x764d2f2e65153a08c5509235334b08be2ae02915",
      "to": "0x83e2654994264333e6fdfe2e43eb862866746041",
      "contractAddress": null
    },
    {
      "status": "0x1",
      "cumulativeGasUsed": "0xf62ee0",
      "logs": [
        {
          "address": "0x83e2654994264333e6fdfe2e43eb862866746041",
          "topics": [
            "0x8c5be1e5ebec7d5bd14f71427d1e84f3dd0314c0f7b2291e5b200ac8c7c3b925",
            "0x000000000000000000000000764d2f2e65153a08c5509235334b08be2ae02915",
            "0x0000000000000000000000000000000000000000000000000000000000000000",
            "0x0000000000000000000000000000000000000000000000000000000000000050"
          ],
          "data": "0x",
          "blockHash": "0xc90c6ca3dc53f1e5caf2345689b17f1e9543316c58dac2a6dcbc2140138c429e",
          "blockNumber": "0x16c6cd7",
          "blockTimestamp": "0x6926f4bf",
          "transactionHash": "0xe26104475d111ef4708ab6dcd971da01fb2c78b0ac17611efb660e27c4d6a2aa",
          "transactionIndex": "0xb6",
          "logIndex": "0x17f",
          "removed": false
        },
        {
          "address": "0x83e2654994264333e6fdfe2e43eb862866746041",
          "topics": [
            "0xddf252ad1be2c89b69c2b068fc378daa952ba7f163c4a11628f55a4df523b3ef",
            "0x000000000000000000000000764d2f2e65153a08c5509235334b08be2ae02915",
            "0x000000000000000000000000b0bf498288dff665e3129f63e1d010f9297205f1",
            "0x0000000000000000000000000000000000000000000000000000000000000050"
          ],
          "data": "0x",
          "blockHash": "0xc90c6ca3dc53f1e5caf2345689b17f1e9543316c58dac2a6dcbc2140138c429e",
          "blockNumber": "0x16c6cd7",
          "blockTimestamp": "0x6926f4bf",
          "transactionHash": "0xe26104475d111ef4708ab6dcd971da01fb2c78b0ac17611efb660e27c4d6a2aa",
          "transactionIndex": "0xb6",
          "logIndex": "0x180",
          "removed": false
        },
        {
          "address": "0xb0bf498288dff665e3129f63e1d010f9297205f1",
          "topics": [
            "0x8d66bac62beb4b8362a44ffe462d923e3237556ade9a8a2508df6097004847da",
            "0x0000000000000000000000000000000000000000000000000000000000000050"
          ],
          "data": "0x000000000000000000000000000000000000000000000000000000006926f4bf",
          "blockHash": "0xc90c6ca3dc53f1e5caf2345689b17f1e9543316c58dac2a6dcbc2140138c429e",
          "blockNumber": "0x16c6cd7",
          "blockTimestamp": "0x6926f4bf",
          "transactionHash": "0xe26104475d111ef4708ab6dcd971da01fb2c78b0ac17611efb660e27c4d6a2aa",
          "transactionIndex": "0xb6",
          "logIndex": "0x181",
          "removed": false
        }
      ],
      "logsBloom": "0x00000000000000000000000000000000000000000100000000000000000000000000000000800000000000000020000000000000100000002000000000200000000000000000000004000008000200000000000000000000000002000000000000000000028000000000000000000800000008000000000000000010000000000000000000000000000000004000000000000000000000000000000000000000020000000000000000400000000000000000000000000000000000000000000000000002000000000000000000000000000000000000000000000420000020000010000000000080000000000000000000080000800000000000000008000000",
      "type": "0x2",
      "transactionHash": "0xe26104475d111ef4708ab6dcd971da01fb2c78b0ac17611efb660e27c4d6a2aa",
      "transactionIndex": "0xb6",
      "blockHash": "0xc90c6ca3dc53f1e5caf2345689b17f1e9543316c58dac2a6dcbc2140138c429e",
      "blockNumber": "0x16c6cd7",
      "gasUsed": "0x212d2",
      "effectiveGasPrice": "0x3363734",
      "from": "0x764d2f2e65153a08c5509235334b08be2ae02915",
      "to": "0x83e2654994264333e6fdfe2e43eb862866746041",
      "contractAddress": null
    },
    {
      "status": "0x1",
      "cumulativeGasUsed": "0x39064f0",
      "logs": [
        {
          "address": "0x83e2654994264333e6fdfe2e43eb862866746041",
          "topics": [
            "0x8c5be1e5ebec7d5bd14f71427d1e84f3dd0314c0f7b2291e5b200ac8c7c3b925",
            "0x000000000000000000000000764d2f2e65153a08c5509235334b08be2ae02915",
            "0x0000000000000000000000000000000000000000000000000000000000000000",
            "0x0000000000000000000000000000000000000000000000000000000000000052"
          ],
          "data": "0x",
          "blockHash": "0xe9c99920d075fc4fdcc506d56070f79ac47d8413b04457de697c946666d91ca5",
          "blockNumber": "0x16c6cd8",
          "blockTimestamp": "0x6926f4cb",
          "transactionHash": "0x531cb2bdc1b63374db7ffaedbe0200ada3d05122d988fb05fcb3d87ad72a9146",
          "transactionIndex": "0xdf",
          "logIndex": "0x31e",
          "removed": false
        },
        {
          "address": "0x83e2654994264333e6fdfe2e43eb862866746041",
          "topics": [
            "0xddf252ad1be2c89b69c2b068fc378daa952ba7f163c4a11628f55a4df523b3ef",
            "0x000000000000000000000000764d2f2e65153a08c5509235334b08be2ae02915",
            "0x000000000000000000000000b0bf498288dff665e3129f63e1d010f9297205f1",
            "0x0000000000000000000000000000000000000000000000000000000000000052"
          ],
          "data": "0x",
          "blockHash": "0xe9c99920d075fc4fdcc506d56070f79ac47d8413b04457de697c946666d91ca5",
          "blockNumber": "0x16c6cd8",
          "blockTimestamp": "0x6926f4cb",
          "transactionHash": "0x531cb2bdc1b63374db7ffaedbe0200ada3d05122d988fb05fcb3d87ad72a9146",
          "transactionIndex": "0xdf",
          "logIndex": "0x31f",
          "removed": false
        },
        {
          "address": "0xb0bf498288dff665e3129f63e1d010f9297205f1",
          "topics": [
            "0x8d66bac62beb4b8362a44ffe462d923e3237556ade9a8a2508df6097004847da",
            "0x0000000000000000000000000000000000000000000000000000000000000052"
          ],
          "data": "0x000000000000000000000000000000000000000000000000000000006926f4cb",
          "blockHash": "0xe9c99920d075fc4fdcc506d56070f79ac47d8413b04457de697c946666d91ca5",
          "blockNumber": "0x16c6cd8",
          "blockTimestamp": "0x6926f4cb",
          "transactionHash": "0x531cb2bdc1b63374db7ffaedbe0200ada3d05122d988fb05fcb3d87ad72a9146",
          "transactionIndex": "0xdf",
          "logIndex": "0x320",
          "removed": false
        }
      ],
      "logsBloom": "0x00000000000000000000000000000000000000000100000000000000000000002000000000800000000000000000000000000000100000002000000000200000000000000000000004000008000200000000000000000000000000000000000000000000028000000000000000000800000008000000000000000010000000000000000000000000000000004000000000000000000000000000000000000000020000000000000000400000000000000000000040000000000000000000000000000002000000000000000000000000000000000000000000000400001020000010000000000080000000000000000000080000800000000000000008000000",
      "type": "0x2",
      "transactionHash": "0x531cb2bdc1b63374db7ffaedbe0200ada3d05122d988fb05fcb3d87ad72a9146",
      "transactionIndex": "0xdf",
      "blockHash": "0xe9c99920d075fc4fdcc506d56070f79ac47d8413b04457de697c946666d91ca5",
      "blockNumber": "0x16c6cd8",
      "gasUsed": "0x212d2",
      "effectiveGasPrice": "0x31107e1",
      "from": "0x764d2f2e65153a08c5509235334b08be2ae02915",
      "to": "0x83e2654994264333e6fdfe2e43eb862866746041",
      "contractAddress": null
    },
    {
      "status": "0x1",
      "cumulativeGasUsed": "0x186d2b6",
      "logs": [
        {
          "address": "0x83e2654994264333e6fdfe2e43eb862866746041",
          "topics": [
            "0x8c5be1e5ebec7d5bd14f71427d1e84f3dd0314c0f7b2291e5b200ac8c7c3b925",
            "0x000000000000000000000000764d2f2e65153a08c5509235334b08be2ae02915",
            "0x0000000000000000000000000000000000000000000000000000000000000000",
            "0x0000000000000000000000000000000000000000000000000000000000000054"
          ],
          "data": "0x",
          "blockHash": "0x4ef07a6fe10f4f8c2f363c0730c0ec6548b89a37dcf170c7bb2186beaf587d65",
          "blockNumber": "0x16c6cd9",
          "blockTimestamp": "0x6926f4d7",
          "transactionHash": "0x3e005170d55e43c41c668d42a3aab7249a771b7c3e618eb9328704c295da447b",
          "transactionIndex": "0xdb",
          "logIndex": "0x27e",
          "removed": false
        },
        {
          "address": "0x83e2654994264333e6fdfe2e43eb862866746041",
          "topics": [
            "0xddf252ad1be2c89b69c2b068fc378daa952ba7f163c4a11628f55a4df523b3ef",
            "0x000000000000000000000000764d2f2e65153a08c5509235334b08be2ae02915",
            "0x000000000000000000000000b0bf498288dff665e3129f63e1d010f9297205f1",
            "0x0000000000000000000000000000000000000000000000000000000000000054"
          ],
          "data": "0x",
          "blockHash": "0x4ef07a6fe10f4f8c2f363c0730c0ec6548b89a37dcf170c7bb2186beaf587d65",
          "blockNumber": "0x16c6cd9",
          "blockTimestamp": "0x6926f4d7",
          "transactionHash": "0x3e005170d55e43c41c668d42a3aab7249a771b7c3e618eb9328704c295da447b",
          "transactionIndex": "0xdb",
          "logIndex": "0x27f",
          "removed": false
        },
        {
          "address": "0xb0bf498288dff665e3129f63e1d010f9297205f1",
          "topics": [
            "0x8d66bac62beb4b8362a44ffe462d923e3237556ade9a8a2508df6097004847da",
            "0x0000000000000000000000000000000000000000000000000000000000000054"
          ],
          "data": "0x000000000000000000000000000000000000000000000000000000006926f4d7",
          "blockHash": "0x4ef07a6fe10f4f8c2f363c0730c0ec6548b89a37dcf170c7bb2186beaf587d65",
          "blockNumber": "0x16c6cd9",
          "blockTimestamp": "0x6926f4d7",
          "transactionHash": "0x3e005170d55e43c41c668d42a3aab7249a771b7c3e618eb9328704c295da447b",
          "transactionIndex": "0xdb",
          "logIndex": "0x280",
          "removed": false
        }
      ],
      "logsBloom": "0x00000000000000000000000000000000000000000102000000000000000000000000000000800000000000000000000000000000100000002000000000200000000000000000000004000008000200000000000000000000000000000000000000000000028000000000000000000800000008000000000000000010000000000000000000000000000000004000000000000000000000000000000000000000020000000800000000400000000000000000000000000000000000000000000000000002000000000000000000000000000000000000000000000400000020000010000000400080000000000000000000080000800000000000000008000000",
      "type": "0x2",
      "transactionHash": "0x3e005170d55e43c41c668d42a3aab7249a771b7c3e618eb9328704c295da447b",
      "transactionIndex": "0xdb",
      "blockHash": "0x4ef07a6fe10f4f8c2f363c0730c0ec6548b89a37dcf170c7bb2186beaf587d65",
      "blockNumber": "0x16c6cd9",
      "gasUsed": "0x212d2",
      "effectiveGasPrice": "0x373217d",
      "from": "0x764d2f2e65153a08c5509235334b08be2ae02915",
      "to": "0x83e2654994264333e6fdfe2e43eb862866746041",
      "contractAddress": null
    },
    {
      "status": "0x1",
      "cumulativeGasUsed": "0x29d9d04",
      "logs": [
        {
          "address": "0x83e2654994264333e6fdfe2e43eb862866746041",
          "topics": [
            "0x8c5be1e5ebec7d5bd14f71427d1e84f3dd0314c0f7b2291e5b200ac8c7c3b925",
            "0x000000000000000000000000764d2f2e65153a08c5509235334b08be2ae02915",
            "0x0000000000000000000000000000000000000000000000000000000000000000",
            "0x0000000000000000000000000000000000000000000000000000000000000055"
          ],
          "data": "0x",
          "blockHash": "0x1ebf15f0239405c77efbaaff604350dedaa0f8e39ed455d05f24783e3b3ed3b0",
          "blockNumber": "0x16c6cdb",
          "blockTimestamp": "0x6926f4ef",
          "transactionHash": "0x3510c0c48ea50ec28e5ef4d6ac1c5ae713758c0e4df1367f27cb01da57837ca1",
          "transactionIndex": "0x97",
          "logIndex": "0x322",
          "removed": false
        },
        {
          "address": "0x83e2654994264333e6fdfe2e43eb862866746041",
          "topics": [
            "0xddf252ad1be2c89b69c2b068fc378daa952ba7f163c4a11628f55a4df523b3ef",
            "0x000000000000000000000000764d2f2e65153a08c5509235334b08be2ae02915",
            "0x000000000000000000000000b0bf498288dff665e3129f63e1d010f9297205f1",
            "0x0000000000000000000000000000000000000000000000000000000000000055"
          ],
          "data": "0x",
          "blockHash": "0x1ebf15f0239405c77efbaaff604350dedaa0f8e39ed455d05f24783e3b3ed3b0",
          "blockNumber": "0x16c6cdb",
          "blockTimestamp": "0x6926f4ef",
          "transactionHash": "0x3510c0c48ea50ec28e5ef4d6ac1c5ae713758c0e4df1367f27cb01da57837ca1",
          "transactionIndex": "0x97",
          "logIndex": "0x323",
          "removed": false
        },
        {
          "address": "0xb0bf498288dff665e3129f63e1d010f9297205f1",
          "topics": [
            "0x8d66bac62beb4b8362a44ffe462d923e3237556ade9a8a2508df6097004847da",
            "0x0000000000000000000000000000000000000000000000000000000000000055"
          ],
          "data": "0x000000000000000000000000000000000000000000000000000000006926f4ef",
          "blockHash": "0x1ebf15f0239405c77efbaaff604350dedaa0f8e39ed455d05f24783e3b3ed3b0",
          "blockNumber": "0x16c6cdb",
          "blockTimestamp": "0x6926f4ef",
          "transactionHash": "0x3510c0c48ea50ec28e5ef4d6ac1c5ae713758c0e4df1367f27cb01da57837ca1",
          "transactionIndex": "0x97",
          "logIndex": "0x324",
          "removed": false
        }
      ],
      "logsBloom": "0x00000000000000000000000000000000000000000100000000000000000000000000000000800000000000000000000000000000100000002000000000200000000000000000000004000008000200000000000000000000000000000000000000000000028000000000000000000800000008000000000000000010000000000000000000000000000000004000000000000000000000000000000000000000020000000000000000408000000000000000000000000000000000000004000000000002000000004000000000000000000000000000000000000400000020000010000000000080000000000000000000080000800000000000000008000000",
      "type": "0x2",
      "transactionHash": "0x3510c0c48ea50ec28e5ef4d6ac1c5ae713758c0e4df1367f27cb01da57837ca1",
      "transactionIndex": "0x97",
      "blockHash": "0x1ebf15f0239405c77efbaaff604350dedaa0f8e39ed455d05f24783e3b3ed3b0",
      "blockNumber": "0x16c6cdb",
      "gasUsed": "0x212d2",
      "effectiveGasPrice": "0x30caaf8",
      "from": "0x764d2f2e65153a08c5509235334b08be2ae02915",
      "to": "0x83e2654994264333e6fdfe2e43eb862866746041",
      "contractAddress": null
    },
    {
      "status": "0x1",
      "cumulativeGasUsed": "0x23ca9da",
      "logs": [
        {
          "address": "0x83e2654994264333e6fdfe2e43eb862866746041",
          "topics": [
            "0x8c5be1e5ebec7d5bd14f71427d1e84f3dd0314c0f7b2291e5b200ac8c7c3b925",
            "0x000000000000000000000000764d2f2e65153a08c5509235334b08be2ae02915",
            "0x0000000000000000000000000000000000000000000000000000000000000000",
            "0x0000000000000000000000000000000000000000000000000000000000000056"
          ],
          "data": "0x",
          "blockHash": "0xb2c0110c3fea7ae67ce5b2adb21607725420a9df7174b1a0f9d56f77417084c5",
          "blockNumber": "0x16c6cdc",
          "blockTimestamp": "0x6926f4fb",
          "transactionHash": "0x11a106f9e5299a833a93b0d4a972c55462967f131d303eaf1d4880e1e1f510d2",
          "transactionIndex": "0x9d",
          "logIndex": "0x1dc",
          "removed": false
        },
        {
          "address": "0x83e2654994264333e6fdfe2e43eb862866746041",
          "topics": [
            "0xddf252ad1be2c89b69c2b068fc378daa952ba7f163c4a11628f55a4df523b3ef",
            "0x000000000000000000000000764d2f2e65153a08c5509235334b08be2ae02915",
            "0x000000000000000000000000b0bf498288dff665e3129f63e1d010f9297205f1",
            "0x0000000000000000000000000000000000000000000000000000000000000056"
          ],
          "data": "0x",
          "blockHash": "0xb2c0110c3fea7ae67ce5b2adb21607725420a9df7174b1a0f9d56f77417084c5",
          "blockNumber": "0x16c6cdc",
          "blockTimestamp": "0x6926f4fb",
          "transactionHash": "0x11a106f9e5299a833a93b0d4a972c55462967f131d303eaf1d4880e1e1f510d2",
          "transactionIndex": "0x9d",
          "logIndex": "0x1dd",
          "removed": false
        },
        {
          "address": "0xb0bf498288dff665e3129f63e1d010f9297205f1",
          "topics": [
            "0x8d66bac62beb4b8362a44ffe462d923e3237556ade9a8a2508df6097004847da",
            "0x0000000000000000000000000000000000000000000000000000000000000056"
          ],
          "data": "0x000000000000000000000000000000000000000000000000000000006926f4fb",
          "blockHash": "0xb2c0110c3fea7ae67ce5b2adb21607725420a9df7174b1a0f9d56f77417084c5",
          "blockNumber": "0x16c6cdc",
          "blockTimestamp": "0x6926f4fb",
          "transactionHash": "0x11a106f9e5299a833a93b0d4a972c55462967f131d303eaf1d4880e1e1f510d2",
          "transactionIndex": "0x9d",
          "logIndex": "0x1de",
          "removed": false
        }
      ],
      "logsBloom": "0x00000000000000000000000000000000000000000100000000000000000000000000000000800000000000000000000400000000100000002000000000200000000000000000000004000008000200000000000000000000000000000000000000000000028000000000000000000800000008000000000000000010000000000000000000000000000000004000000000000000000000000000000000000000020000000000000000400000000000000010000000000000000000000000000000200002000000000000000000000000000000000000000000000400000020000010000000000080000000000000000000080000800000000000000008000000",
      "type": "0x2",
      "transactionHash": "0x11a106f9e5299a833a93b0d4a972c55462967f131d303eaf1d4880e1e1f510d2",
      "transactionIndex": "0x9d",
      "blockHash": "0xb2c0110c3fea7ae67ce5b2adb21607725420a9df7174b1a0f9d56f77417084c5",
      "blockNumber": "0x16c6cdc",
      "gasUsed": "0x212d2",
      "effectiveGasPrice": "0x36bbc51",
      "from": "0x764d2f2e65153a08c5509235334b08be2ae02915",
      "to": "0x83e2654994264333e6fdfe2e43eb862866746041",
      "contractAddress": null
    },
    {
      "status": "0x1",
      "cumulativeGasUsed": "0x29a60dd",
      "logs": [
        {
          "address": "0x83e2654994264333e6fdfe2e43eb862866746041",
          "topics": [
            "0x8c5be1e5ebec7d5bd14f71427d1e84f3dd0314c0f7b2291e5b200ac8c7c3b925",
            "0x000000000000000000000000764d2f2e65153a08c5509235334b08be2ae02915",
            "0x0000000000000000000000000000000000000000000000000000000000000000",
            "0x0000000000000000000000000000000000000000000000000000000000000057"
          ],
          "data": "0x",
          "blockHash": "0x13c08baae450bac948e1cd80e9f3df657de817bc5358ea0d3159382aa1e3f564",
          "blockNumber": "0x16c6cdf",
          "blockTimestamp": "0x6926f51f",
          "transactionHash": "0xb65c6caf4f590d07a73fbbeb73b1830689b337899d89500a0c075a89e84d30c7",
          "transactionIndex": "0xba",
          "logIndex": "0x2cb",
          "removed": false
        },
        {
          "address": "0x83e2654994264333e6fdfe2e43eb862866746041",
          "topics": [
            "0xddf252ad1be2c89b69c2b068fc378daa952ba7f163c4a11628f55a4df523b3ef",
            "0x000000000000000000000000764d2f2e65153a08c5509235334b08be2ae02915",
            "0x000000000000000000000000b0bf498288dff665e3129f63e1d010f9297205f1",
            "0x0000000000000000000000000000000000000000000000000000000000000057"
          ],
          "data": "0x",
          "blockHash": "0x13c08baae450bac948e1cd80e9f3df657de817bc5358ea0d3159382aa1e3f564",
          "blockNumber": "0x16c6cdf",
          "blockTimestamp": "0x6926f51f",
          "transactionHash": "0xb65c6caf4f590d07a73fbbeb73b1830689b337899d89500a0c075a89e84d30c7",
          "transactionIndex": "0xba",
          "logIndex": "0x2cc",
          "removed": false
        },
        {
          "address": "0xb0bf498288dff665e3129f63e1d010f9297205f1",
          "topics": [
            "0x8d66bac62beb4b8362a44ffe462d923e3237556ade9a8a2508df6097004847da",
            "0x0000000000000000000000000000000000000000000000000000000000000057"
          ],
          "data": "0x000000000000000000000000000000000000000000000000000000006926f51f",
          "blockHash": "0x13c08baae450bac948e1cd80e9f3df657de817bc5358ea0d3159382aa1e3f564",
          "blockNumber": "0x16c6cdf",
          "blockTimestamp": "0x6926f51f",
          "transactionHash": "0xb65c6caf4f590d07a73fbbeb73b1830689b337899d89500a0c075a89e84d30c7",
          "transactionIndex": "0xba",
          "logIndex": "0x2cd",
          "removed": false
        }
      ],
      "logsBloom": "0x00000000000000000000000000000000000000000100000000000000000000000000000000800000000000000000040000000000100000002000000000200000000000000000000004000008000200000000000000000000000000000000000000000000028000000000000000000800000008000000000000000010000000000000000000000000000000004000000000000000000000000000000000000000020000000000000000400000000000000000000000000000000000000000000000000002000000000000000000000000000000002000000000000400000020000010002000000080000000000000000000080000800000000000000008000000",
      "type": "0x2",
      "transactionHash": "0xb65c6caf4f590d07a73fbbeb73b1830689b337899d89500a0c075a89e84d30c7",
      "transactionIndex": "0xba",
      "blockHash": "0x13c08baae450bac948e1cd80e9f3df657de817bc5358ea0d3159382aa1e3f564",
      "blockNumber": "0x16c6cdf",
      "gasUsed": "0x212d2",
      "effectiveGasPrice": "0x33f121a",
      "from": "0x764d2f2e65153a08c5509235334b08be2ae02915",
      "to": "0x83e2654994264333e6fdfe2e43eb862866746041",
      "contractAddress": null
    },
    {
      "status": "0x1",
      "cumulativeGasUsed": "0x3181798",
      "logs": [
        {
          "address": "0x83e2654994264333e6fdfe2e43eb862866746041",
          "topics": [
            "0x8c5be1e5ebec7d5bd14f71427d1e84f3dd0314c0f7b2291e5b200ac8c7c3b925",
            "0x000000000000000000000000764d2f2e65153a08c5509235334b08be2ae02915",
            "0x0000000000000000000000000000000000000000000000000000000000000000",
            "0x0000000000000000000000000000000000000000000000000000000000000058"
          ],
          "data": "0x",
          "blockHash": "0x4e74e342742a2c49ab729f412a32e3dce845696c0ef8b3b60a14b9dd48426129",
          "blockNumber": "0x16c6ce3",
          "blockTimestamp": "0x6926f54f",
          "transactionHash": "0x8021e59b3e47f4abfb8a2b04934ad88e0e93e26eee78f1e273eec50acf1dcca7",
          "transactionIndex": "0xde",
          "logIndex": "0x9ed",
          "removed": false
        },
        {
          "address": "0x83e2654994264333e6fdfe2e43eb862866746041",
          "topics": [
            "0xddf252ad1be2c89b69c2b068fc378daa952ba7f163c4a11628f55a4df523b3ef",
            "0x000000000000000000000000764d2f2e65153a08c5509235334b08be2ae02915",
            "0x000000000000000000000000b0bf498288dff665e3129f63e1d010f9297205f1",
            "0x0000000000000000000000000000000000000000000000000000000000000058"
          ],
          "data": "0x",
          "blockHash": "0x4e74e342742a2c49ab729f412a32e3dce845696c0ef8b3b60a14b9dd48426129",
          "blockNumber": "0x16c6ce3",
          "blockTimestamp": "0x6926f54f",
          "transactionHash": "0x8021e59b3e47f4abfb8a2b04934ad88e0e93e26eee78f1e273eec50acf1dcca7",
          "transactionIndex": "0xde",
          "logIndex": "0x9ee",
          "removed": false
        },
        {
          "address": "0xb0bf498288dff665e3129f63e1d010f9297205f1",
          "topics": [
            "0x8d66bac62beb4b8362a44ffe462d923e3237556ade9a8a2508df6097004847da",
            "0x0000000000000000000000000000000000000000000000000000000000000058"
          ],
          "data": "0x000000000000000000000000000000000000000000000000000000006926f54f",
          "blockHash": "0x4e74e342742a2c49ab729f412a32e3dce845696c0ef8b3b60a14b9dd48426129",
          "blockNumber": "0x16c6ce3",
          "blockTimestamp": "0x6926f54f",
          "transactionHash": "0x8021e59b3e47f4abfb8a2b04934ad88e0e93e26eee78f1e273eec50acf1dcca7",
          "transactionIndex": "0xde",
          "logIndex": "0x9ef",
          "removed": false
        }
      ],
      "logsBloom": "0x00000000000000000000000000000000000000000100000000000000000000000000000000800000000000000080000000000000100000002000000000200000000000000000000004000008000200000001000000000000000000000000000000000000028000000000000000000800000008000000000000000010000000000000000000000000000000004000000000000000000000000000000000000000020000000000000000400000000000000000000000000000000000000000000000000002000000000000000000000000000000000000000000000400000020000010000000100080000000000000000000080000800000000000000008000000",
      "type": "0x2",
      "transactionHash": "0x8021e59b3e47f4abfb8a2b04934ad88e0e93e26eee78f1e273eec50acf1dcca7",
      "transactionIndex": "0xde",
      "blockHash": "0x4e74e342742a2c49ab729f412a32e3dce845696c0ef8b3b60a14b9dd48426129",
      "blockNumber": "0x16c6ce3",
      "gasUsed": "0x212d2",
      "effectiveGasPrice": "0x3672683",
      "from": "0x764d2f2e65153a08c5509235334b08be2ae02915",
      "to": "0x83e2654994264333e6fdfe2e43eb862866746041",
      "contractAddress": null
    },
    {
      "status": "0x1",
      "cumulativeGasUsed": "0xaccd8f",
      "logs": [
        {
          "address": "0x83e2654994264333e6fdfe2e43eb862866746041",
          "topics": [
            "0x8c5be1e5ebec7d5bd14f71427d1e84f3dd0314c0f7b2291e5b200ac8c7c3b925",
            "0x000000000000000000000000764d2f2e65153a08c5509235334b08be2ae02915",
            "0x0000000000000000000000000000000000000000000000000000000000000000",
            "0x0000000000000000000000000000000000000000000000000000000000000059"
          ],
          "data": "0x",
          "blockHash": "0x2d2b4d3ccb75aeb5da3018e43206fa887620a87e49a9d23c9908192fe12c532b",
          "blockNumber": "0x16c6ce4",
          "blockTimestamp": "0x6926f55b",
          "transactionHash": "0x2b7965969d4dcf558dcb1584653264c38e976f36d6438178df5e109c8b8a6d6a",
          "transactionIndex": "0x47",
          "logIndex": "0x14c",
          "removed": false
        },
        {
          "address": "0x83e2654994264333e6fdfe2e43eb862866746041",
          "topics": [
            "0xddf252ad1be2c89b69c2b068fc378daa952ba7f163c4a11628f55a4df523b3ef",
            "0x000000000000000000000000764d2f2e65153a08c5509235334b08be2ae02915",
            "0x000000000000000000000000b0bf498288dff665e3129f63e1d010f9297205f1",
            "0x0000000000000000000000000000000000000000000000000000000000000059"
          ],
          "data": "0x",
          "blockHash": "0x2d2b4d3ccb75aeb5da3018e43206fa887620a87e49a9d23c9908192fe12c532b",
          "blockNumber": "0x16c6ce4",
          "blockTimestamp": "0x6926f55b",
          "transactionHash": "0x2b7965969d4dcf558dcb1584653264c38e976f36d6438178df5e109c8b8a6d6a",
          "transactionIndex": "0x47",
          "logIndex": "0x14d",
          "removed": false
        },
        {
          "address": "0xb0bf498288dff665e3129f63e1d010f9297205f1",
          "topics": [
            "0x8d66bac62beb4b8362a44ffe462d923e3237556ade9a8a2508df6097004847da",
            "0x0000000000000000000000000000000000000000000000000000000000000059"
          ],
          "data": "0x000000000000000000000000000000000000000000000000000000006926f55b",
          "blockHash": "0x2d2b4d3ccb75aeb5da3018e43206fa887620a87e49a9d23c9908192fe12c532b",
          "blockNumber": "0x16c6ce4",
          "blockTimestamp": "0x6926f55b",
          "transactionHash": "0x2b7965969d4dcf558dcb1584653264c38e976f36d6438178df5e109c8b8a6d6a",
          "transactionIndex": "0x47",
          "logIndex": "0x14e",
          "removed": false
        }
      ],
      "logsBloom": "0x00000000000000000000000000000000000000000100000002000000000000000000000000800000020000000000000000000000100000002000000000200000000000000000000004000008000200000000000000000000000000000000000000000000028000000000000000000800000008000000000000000010000000000000000000000000000000004000000000000000000000000000000000000000020000000000000000400000000000000000000000000000000000000000000000000002000000000000000000000000000000000000000000000400000020000010000000000080000000000000000000080000800000000000000008002000",
      "type": "0x2",
      "transactionHash": "0x2b7965969d4dcf558dcb1584653264c38e976f36d6438178df5e109c8b8a6d6a",
      "transactionIndex": "0x47",
      "blockHash": "0x2d2b4d3ccb75aeb5da3018e43206fa887620a87e49a9d23c9908192fe12c532b",
      "blockNumber": "0x16c6ce4",
      "gasUsed": "0x212d2",
      "effectiveGasPrice": "0x3c7c33f",
      "from": "0x764d2f2e65153a08c5509235334b08be2ae02915",
      "to": "0x83e2654994264333e6fdfe2e43eb862866746041",
      "contractAddress": null
    },
    {
      "status": "0x1",
      "cumulativeGasUsed": "0x11f8ad4",
      "logs": [
        {
          "address": "0x83e2654994264333e6fdfe2e43eb862866746041",
          "topics": [
            "0x8c5be1e5ebec7d5bd14f71427d1e84f3dd0314c0f7b2291e5b200ac8c7c3b925",
            "0x000000000000000000000000764d2f2e65153a08c5509235334b08be2ae02915",
            "0x0000000000000000000000000000000000000000000000000000000000000000",
            "0x000000000000000000000000000000000000000000000000000000000000005a"
          ],
          "data": "0x",
          "blockHash": "0x893583318d57840008763fe7ae8b4e28a47cd2c3c13ed8d3e50c78174f8bf27d",
          "blockNumber": "0x16c6ce5",
          "blockTimestamp": "0x6926f567",
          "transactionHash": "0x90895b228734a183cf3ba94f6a9e7b24cd4e11bf41f59912e5de535995141b94",
          "transactionIndex": "0xbe",
          "logIndex": "0x1d7",
          "removed": false
        },
        {
          "address": "0x83e2654994264333e6fdfe2e43eb862866746041",
          "topics": [
            "0xddf252ad1be2c89b69c2b068fc378daa952ba7f163c4a11628f55a4df523b3ef",
            "0x000000000000000000000000764d2f2e65153a08c5509235334b08be2ae02915",
            "0x000000000000000000000000b0bf498288dff665e3129f63e1d010f9297205f1",
            "0x000000000000000000000000000000000000000000000000000000000000005a"
          ],
          "data": "0x",
          "blockHash": "0x893583318d57840008763fe7ae8b4e28a47cd2c3c13ed8d3e50c78174f8bf27d",
          "blockNumber": "0x16c6ce5",
          "blockTimestamp": "0x6926f567",
          "transactionHash": "0x90895b228734a183cf3ba94f6a9e7b24cd4e11bf41f59912e5de535995141b94",
          "transactionIndex": "0xbe",
          "logIndex": "0x1d8",
          "removed": false
        },
        {
          "address": "0xb0bf498288dff665e3129f63e1d010f9297205f1",
          "topics": [
            "0x8d66bac62beb4b8362a44ffe462d923e3237556ade9a8a2508df6097004847da",
            "0x000000000000000000000000000000000000000000000000000000000000005a"
          ],
          "data": "0x000000000000000000000000000000000000000000000000000000006926f567",
          "blockHash": "0x893583318d57840008763fe7ae8b4e28a47cd2c3c13ed8d3e50c78174f8bf27d",
          "blockNumber": "0x16c6ce5",
          "blockTimestamp": "0x6926f567",
          "transactionHash": "0x90895b228734a183cf3ba94f6a9e7b24cd4e11bf41f59912e5de535995141b94",
          "transactionIndex": "0xbe",
          "logIndex": "0x1d9",
          "removed": false
        }
      ],
      "logsBloom": "0x00000000000000000000000000000000000000000100000000000000000000000000000000800000000000000000000000000000100000002000000000200000000000000000000004000008000200000000000000000000000000000000000000000000028000000000000000000800000008000000000000000010000000000000000000100000000000004000000000000000000000000000000000000000020000000000000000400000000000000000000000000000000000000000000000000002000000000000000000000000000000000000000004000400000020000010000000000088000000000000000000080000800000000000000008000000",
      "type": "0x2",
      "transactionHash": "0x90895b228734a183cf3ba94f6a9e7b24cd4e11bf41f59912e5de535995141b94",
      "transactionIndex": "0xbe",
      "blockHash": "0x893583318d57840008763fe7ae8b4e28a47cd2c3c13ed8d3e50c78174f8bf27d",
      "blockNumber": "0x16c6ce5",
      "gasUsed": "0x212d2",
      "effectiveGasPrice": "0x3a884fe",
      "from": "0x764d2f2e65153a08c5509235334b08be2ae02915",
      "to": "0x83e2654994264333e6fdfe2e43eb862866746041",
      "contractAddress": null
    },
    {
      "status": "0x1",
      "cumulativeGasUsed": "0x18f9216",
      "logs": [
        {
          "address": "0x83e2654994264333e6fdfe2e43eb862866746041",
          "topics": [
            "0x8c5be1e5ebec7d5bd14f71427d1e84f3dd0314c0f7b2291e5b200ac8c7c3b925",
            "0x000000000000000000000000764d2f2e65153a08c5509235334b08be2ae02915",
            "0x0000000000000000000000000000000000000000000000000000000000000000",
            "0x000000000000000000000000000000000000000000000000000000000000005e"
          ],
          "data": "0x",
          "blockHash": "0x4d7b009362ef601ebede19a92e6f3f56d7ff8d9978a6207ea6f1755f9bcd47a0",
          "blockNumber": "0x16c6ce6",
          "blockTimestamp": "0x6926f573",
          "transactionHash": "0xa3e9aef8064c5b57ca79348d4a5655656fe10565079ece446270c6ea69e3fa63",
          "transactionIndex": "0xe2",
          "logIndex": "0x2a9",
          "removed": false
        },
        {
          "address": "0x83e2654994264333e6fdfe2e43eb862866746041",
          "topics": [
            "0xddf252ad1be2c89b69c2b068fc378daa952ba7f163c4a11628f55a4df523b3ef",
            "0x000000000000000000000000764d2f2e65153a08c5509235334b08be2ae02915",
            "0x000000000000000000000000b0bf498288dff665e3129f63e1d010f9297205f1",
            "0x000000000000000000000000000000000000000000000000000000000000005e"
          ],
          "data": "0x",
          "blockHash": "0x4d7b009362ef601ebede19a92e6f3f56d7ff8d9978a6207ea6f1755f9bcd47a0",
          "blockNumber": "0x16c6ce6",
          "blockTimestamp": "0x6926f573",
          "transactionHash": "0xa3e9aef8064c5b57ca79348d4a5655656fe10565079ece446270c6ea69e3fa63",
          "transactionIndex": "0xe2",
          "logIndex": "0x2aa",
          "removed": false
        },
        {
          "address": "0xb0bf498288dff665e3129f63e1d010f9297205f1",
          "topics": [
            "0x8d66bac62beb4b8362a44ffe462d923e3237556ade9a8a2508df6097004847da",
            "0x000000000000000000000000000000000000000000000000000000000000005e"
          ],
          "data": "0x000000000000000000000000000000000000000000000000000000006926f573",
          "blockHash": "0x4d7b009362ef601ebede19a92e6f3f56d7ff8d9978a6207ea6f1755f9bcd47a0",
          "blockNumber": "0x16c6ce6",
          "blockTimestamp": "0x6926f573",
          "transactionHash": "0xa3e9aef8064c5b57ca79348d4a5655656fe10565079ece446270c6ea69e3fa63",
          "transactionIndex": "0xe2",
          "logIndex": "0x2ab",
          "removed": false
        }
      ],
      "logsBloom": "0x00000000000000000000000000000000000000000100000000000000000000000000000000800000000000000000000000000000100000002000000000200000000000000000000004000008000200000000000000000000004000000000000000000000028800000000000000000800000008000000000000000010000000000000000000000000000000004000000000000000000000000000000002000000020000000000000000400000000000000000000000000000000000000000000000000002000000000000000000000000000000000000000000000400000020000010000000000080000000000000000000080000800000000000000008000000",
      "type": "0x2",
      "transactionHash": "0xa3e9aef8064c5b57ca79348d4a5655656fe10565079ece446270c6ea69e3fa63",
      "transactionIndex": "0xe2",
      "blockHash": "0x4d7b009362ef601ebede19a92e6f3f56d7ff8d9978a6207ea6f1755f9bcd47a0",
      "blockNumber": "0x16c6ce6",
      "gasUsed": "0x212d2",
      "effectiveGasPrice": "0x382fc63",
      "from": "0x764d2f2e65153a08c5509235334b08be2ae02915",
      "to": "0x83e2654994264333e6fdfe2e43eb862866746041",
      "contractAddress": null
    },
    {
      "status": "0x1",
      "cumulativeGasUsed": "0xaa4782",
      "logs": [
        {
          "address": "0x83e2654994264333e6fdfe2e43eb862866746041",
          "topics": [
            "0x8c5be1e5ebec7d5bd14f71427d1e84f3dd0314c0f7b2291e5b200ac8c7c3b925",
            "0x000000000000000000000000764d2f2e65153a08c5509235334b08be2ae02915",
            "0x0000000000000000000000000000000000000000000000000000000000000000",
            "0x000000000000000000000000000000000000000000000000000000000000005f"
          ],
          "data": "0x",
          "blockHash": "0xa91ac54805767d8d69bad43bee09c89009da55a61f8d83111fad134ff70528c0",
          "blockNumber": "0x16c6ce9",
          "blockTimestamp": "0x6926f597",
          "transactionHash": "0x4a02f6c200a44cc128b15b159b69a28d1c4cdcddeb00b8ea40dd99a2a4576557",
          "transactionIndex": "0x81",
          "logIndex": "0x13e",
          "removed": false
        },
        {
          "address": "0x83e2654994264333e6fdfe2e43eb862866746041",
          "topics": [
            "0xddf252ad1be2c89b69c2b068fc378daa952ba7f163c4a11628f55a4df523b3ef",
            "0x000000000000000000000000764d2f2e65153a08c5509235334b08be2ae02915",
            "0x000000000000000000000000b0bf498288dff665e3129f63e1d010f9297205f1",
            "0x000000000000000000000000000000000000000000000000000000000000005f"
          ],
          "data": "0x",
          "blockHash": "0xa91ac54805767d8d69bad43bee09c89009da55a61f8d83111fad134ff70528c0",
          "blockNumber": "0x16c6ce9",
          "blockTimestamp": "0x6926f597",
          "transactionHash": "0x4a02f6c200a44cc128b15b159b69a28d1c4cdcddeb00b8ea40dd99a2a4576557",
          "transactionIndex": "0x81",
          "logIndex": "0x13f",
          "removed": false
        },
        {
          "address": "0xb0bf498288dff665e3129f63e1d010f9297205f1",
          "topics": [
            "0x8d66bac62beb4b8362a44ffe462d923e3237556ade9a8a2508df6097004847da",
            "0x000000000000000000000000000000000000000000000000000000000000005f"
          ],
          "data": "0x000000000000000000000000000000000000000000000000000000006926f597",
          "blockHash": "0xa91ac54805767d8d69bad43bee09c89009da55a61f8d83111fad134ff70528c0",
          "blockNumber": "0x16c6ce9",
          "blockTimestamp": "0x6926f597",
          "transactionHash": "0x4a02f6c200a44cc128b15b159b69a28d1c4cdcddeb00b8ea40dd99a2a4576557",
          "transactionIndex": "0x81",
          "logIndex": "0x140",
          "removed": false
        }
      ],
      "logsBloom": "0x00000000000000000000000000000000000000000100000000000000000000000000000000800000000000000000000000000000100000002000000000200000000000000020000004000008020200000000000000000000000000000000000000000000028000000000000000000800400008000000000000000010000000000000000000000000000000004000000000000000000000000000000000000000020000000000000000400000000000000000000000000000000000000000000000000002000000000000000000000000000000000000000000000400000020000010000000000080000000000000000000080000800000000000000008000000",
      "type": "0x2",
      "transactionHash": "0x4a02f6c200a44cc128b15b159b69a28d1c4cdcddeb00b8ea40dd99a2a4576557",
      "transactionIndex": "0x81",
      "blockHash": "0xa91ac54805767d8d69bad43bee09c89009da55a61f8d83111fad134ff70528c0",
      "blockNumber": "0x16c6ce9",
      "gasUsed": "0x212d2",
      "effectiveGasPrice": "0x3396533",
      "from": "0x764d2f2e65153a08c5509235334b08be2ae02915",
      "to": "0x83e2654994264333e6fdfe2e43eb862866746041",
      "contractAddress": null
    },
    {
      "status": "0x1",
      "cumulativeGasUsed": "0x224ced4",
      "logs": [
        {
          "address": "0x83e2654994264333e6fdfe2e43eb862866746041",
          "topics": [
            "0x8c5be1e5ebec7d5bd14f71427d1e84f3dd0314c0f7b2291e5b200ac8c7c3b925",
            "0x000000000000000000000000764d2f2e65153a08c5509235334b08be2ae02915",
            "0x0000000000000000000000000000000000000000000000000000000000000000",
            "0x0000000000000000000000000000000000000000000000000000000000000060"
          ],
          "data": "0x",
          "blockHash": "0x5ce29864c9b4420790013809b8a27b2605862490b793ae2cd53ef8f8f17086fd",
          "blockNumber": "0x16c6cee",
          "blockTimestamp": "0x6926f5d3",
          "transactionHash": "0xb15ac9acf0b88d397cc7de3eeca2603d345b5746bc77208e53b2c3773b631561",
          "transactionIndex": "0x18a",
          "logIndex": "0x32c",
          "removed": false
        },
        {
          "address": "0x83e2654994264333e6fdfe2e43eb862866746041",
          "topics": [
            "0xddf252ad1be2c89b69c2b068fc378daa952ba7f163c4a11628f55a4df523b3ef",
            "0x000000000000000000000000764d2f2e65153a08c5509235334b08be2ae02915",
            "0x000000000000000000000000b0bf498288dff665e3129f63e1d010f9297205f1",
            "0x0000000000000000000000000000000000000000000000000000000000000060"
          ],
          "data": "0x",
          "blockHash": "0x5ce29864c9b4420790013809b8a27b2605862490b793ae2cd53ef8f8f17086fd",
          "blockNumber": "0x16c6cee",
          "blockTimestamp": "0x6926f5d3",
          "transactionHash": "0xb15ac9acf0b88d397cc7de3eeca2603d345b5746bc77208e53b2c3773b631561",
          "transactionIndex": "0x18a",
          "logIndex": "0x32d",
          "removed": false
        },
        {
          "address": "0xb0bf498288dff665e3129f63e1d010f9297205f1",
          "topics": [
            "0x8d66bac62beb4b8362a44ffe462d923e3237556ade9a8a2508df6097004847da",
            "0x0000000000000000000000000000000000000000000000000000000000000060"
          ],
          "data": "0x000000000000000000000000000000000000000000000000000000006926f5d3",
          "blockHash": "0x5ce29864c9b4420790013809b8a27b2605862490b793ae2cd53ef8f8f17086fd",
          "blockNumber": "0x16c6cee",
          "blockTimestamp": "0x6926f5d3",
          "transactionHash": "0xb15ac9acf0b88d397cc7de3eeca2603d345b5746bc77208e53b2c3773b631561",
          "transactionIndex": "0x18a",
          "logIndex": "0x32e",
          "removed": false
        }
      ],
      "logsBloom": "0x00000000000000000000000000200000000000000100000000000000000000000000000000800000000000000000000000200000100000002000000000200000000000000000000004000008000200000000000000000000000000000000000000000000028000000000000000000800000008000000000000000010000000000000000000000000000000004000000000000000000000000000000000000000020000000000000000400000000000000000000000000000000000000000000000000002000000800000000000000000000000000000000000000400000020000010000000000080000000000000000000080000800000000000000008000000",
      "type": "0x2",
      "transactionHash": "0xb15ac9acf0b88d397cc7de3eeca2603d345b5746bc77208e53b2c3773b631561",
      "transactionIndex": "0x18a",
      "blockHash": "0x5ce29864c9b4420790013809b8a27b2605862490b793ae2cd53ef8f8f17086fd",
      "blockNumber": "0x16c6cee",
      "gasUsed": "0x212d2",
      "effectiveGasPrice": "0x31a1c0c",
      "from": "0x764d2f2e65153a08c5509235334b08be2ae02915",
      "to": "0x83e2654994264333e6fdfe2e43eb862866746041",
      "contractAddress": null
    },
    {
      "status": "0x1",
      "cumulativeGasUsed": "0x13edea7",
      "logs": [
        {
          "address": "0x83e2654994264333e6fdfe2e43eb862866746041",
          "topics": [
            "0x8c5be1e5ebec7d5bd14f71427d1e84f3dd0314c0f7b2291e5b200ac8c7c3b925",
            "0x000000000000000000000000764d2f2e65153a08c5509235334b08be2ae02915",
            "0x0000000000000000000000000000000000000000000000000000000000000000",
            "0x0000000000000000000000000000000000000000000000000000000000000061"
          ],
          "data": "0x",
          "blockHash": "0x35d0c6ed071dc4626785fe341c00c509e110db0fe8a7663f9f1c56726bf93648",
          "blockNumber": "0x16c6cf0",
          "blockTimestamp": "0x6926f5eb",
          "transactionHash": "0x222d0b857710d17c4b24d897b1ffeda159acaa3773f3d7127126bb57316d109b",
          "transactionIndex": "0xe6",
          "logIndex": "0x19c",
          "removed": false
        },
        {
          "address": "0x83e2654994264333e6fdfe2e43eb862866746041",
          "topics": [
            "0xddf252ad1be2c89b69c2b068fc378daa952ba7f163c4a11628f55a4df523b3ef",
            "0x000000000000000000000000764d2f2e65153a08c5509235334b08be2ae02915",
            "0x000000000000000000000000b0bf498288dff665e3129f63e1d010f9297205f1",
            "0x0000000000000000000000000000000000000000000000000000000000000061"
          ],
          "data": "0x",
          "blockHash": "0x35d0c6ed071dc4626785fe341c00c509e110db0fe8a7663f9f1c56726bf93648",
          "blockNumber": "0x16c6cf0",
          "blockTimestamp": "0x6926f5eb",
          "transactionHash": "0x222d0b857710d17c4b24d897b1ffeda159acaa3773f3d7127126bb57316d109b",
          "transactionIndex": "0xe6",
          "logIndex": "0x19d",
          "removed": false
        },
        {
          "address": "0xb0bf498288dff665e3129f63e1d010f9297205f1",
          "topics": [
            "0x8d66bac62beb4b8362a44ffe462d923e3237556ade9a8a2508df6097004847da",
            "0x0000000000000000000000000000000000000000000000000000000000000061"
          ],
          "data": "0x000000000000000000000000000000000000000000000000000000006926f5eb",
          "blockHash": "0x35d0c6ed071dc4626785fe341c00c509e110db0fe8a7663f9f1c56726bf93648",
          "blockNumber": "0x16c6cf0",
          "blockTimestamp": "0x6926f5eb",
          "transactionHash": "0x222d0b857710d17c4b24d897b1ffeda159acaa3773f3d7127126bb57316d109b",
          "transactionIndex": "0xe6",
          "logIndex": "0x19e",
          "removed": false
        }
      ],
      "logsBloom": "0x00000000000000000000000000000000000000002100000000000000000000000000000000800000000000000000000000000000100000002000000000200000000000000000000004000008000200000000000000000000000000000000000000000000028000000000000000000800000008000000000000000010000000000000000000000000000000004000000000000000000000000000000000000000020000000000000000400000000000000000000000000000000000000000000000000002000000000000000000000004000000000000000000000400000020000010100000000080000000000000000000080000800000000000000008000000",
      "type": "0x2",
      "transactionHash": "0x222d0b857710d17c4b24d897b1ffeda159acaa3773f3d7127126bb57316d109b",
      "transactionIndex": "0xe6",
      "blockHash": "0x35d0c6ed071dc4626785fe341c00c509e110db0fe8a7663f9f1c56726bf93648",
      "blockNumber": "0x16c6cf0",
      "gasUsed": "0x212d2",
      "effectiveGasPrice": "0x31683e7",
      "from": "0x764d2f2e65153a08c5509235334b08be2ae02915",
      "to": "0x83e2654994264333e6fdfe2e43eb862866746041",
      "contractAddress": null
    },
    {
      "status": "0x1",
      "cumulativeGasUsed": "0x3405565",
      "logs": [
        {
          "address": "0x83e2654994264333e6fdfe2e43eb862866746041",
          "topics": [
            "0x8c5be1e5ebec7d5bd14f71427d1e84f3dd0314c0f7b2291e5b200ac8c7c3b925",
            "0x000000000000000000000000764d2f2e65153a08c5509235334b08be2ae02915",
            "0x0000000000000000000000000000000000000000000000000000000000000000",
            "0x0000000000000000000000000000000000000000000000000000000000000062"
          ],
          "data": "0x",
          "blockHash": "0x122522dbabd7866a6a38d4181ca95908392d4b132ae61e6b7260adc08f6616fe",
          "blockNumber": "0x16c6cf1",
          "blockTimestamp": "0x6926f5f7",
          "transactionHash": "0x67cbc75a3f7c554e02bbfd82d62d60afdaa881ca6f9164e775ee12f4ed2d9b6e",
          "transactionIndex": "0x99",
          "logIndex": "0x237",
          "removed": false
        },
        {
          "address": "0x83e2654994264333e6fdfe2e43eb862866746041",
          "topics": [
            "0xddf252ad1be2c89b69c2b068fc378daa952ba7f163c4a11628f55a4df523b3ef",
            "0x000000000000000000000000764d2f2e65153a08c5509235334b08be2ae02915",
            "0x000000000000000000000000b0bf498288dff665e3129f63e1d010f9297205f1",
            "0x0000000000000000000000000000000000000000000000000000000000000062"
          ],
          "data": "0x",
          "blockHash": "0x122522dbabd7866a6a38d4181ca95908392d4b132ae61e6b7260adc08f6616fe",
          "blockNumber": "0x16c6cf1",
          "blockTimestamp": "0x6926f5f7",
          "transactionHash": "0x67cbc75a3f7c554e02bbfd82d62d60afdaa881ca6f9164e775ee12f4ed2d9b6e",
          "transactionIndex": "0x99",
          "logIndex": "0x238",
          "removed": false
        },
        {
          "address": "0xb0bf498288dff665e3129f63e1d010f9297205f1",
          "topics": [
            "0x8d66bac62beb4b8362a44ffe462d923e3237556ade9a8a2508df6097004847da",
            "0x0000000000000000000000000000000000000000000000000000000000000062"
          ],
          "data": "0x000000000000000000000000000000000000000000000000000000006926f5f7",
          "blockHash": "0x122522dbabd7866a6a38d4181ca95908392d4b132ae61e6b7260adc08f6616fe",
          "blockNumber": "0x16c6cf1",
          "blockTimestamp": "0x6926f5f7",
          "transactionHash": "0x67cbc75a3f7c554e02bbfd82d62d60afdaa881ca6f9164e775ee12f4ed2d9b6e",
          "transactionIndex": "0x99",
          "logIndex": "0x239",
          "removed": false
        }
      ],
      "logsBloom": "0x00000000000000000000000000000000000000000100000000000000000000000000000000800000000000000000000000000000100000002000000000200000000008000000000004000008000200000000000000000000000000000000000000000000028000000000000000000800000008000000000000000010000000000000000000000000000000004000000000000000000000000000000002000000020000000000000000400000000000000000000000000000000000000000000000000002000000000000000000000000000000000000000000000400000420000010000000000080000000000000000000080000800000000000000008000000",
      "type": "0x2",
      "transactionHash": "0x67cbc75a3f7c554e02bbfd82d62d60afdaa881ca6f9164e775ee12f4ed2d9b6e",
      "transactionIndex": "0x99",
      "blockHash": "0x122522dbabd7866a6a38d4181ca95908392d4b132ae61e6b7260adc08f6616fe",
      "blockNumber": "0x16c6cf1",
      "gasUsed": "0x212d2",
      "effectiveGasPrice": "0x304f613",
      "from": "0x764d2f2e65153a08c5509235334b08be2ae02915",
      "to": "0x83e2654994264333e6fdfe2e43eb862866746041",
      "contractAddress": null
    }
  ],
  "libraries": [],
  "pending": [],
  "returns": {},
  "timestamp": 1764161018283,
  "chain": 1,
  "commit": null
}