{
  "transactions": [
    {
      "hash": "0xd670e1fd9237cd149a2e4c8c6634148b1aa7b769f86c9958fb956e55c32f3462",
      "transactionType": "CALL",
      "contractName": null,
      "contractAddress": "0x8d69c9f6f2f903fda282c9de46c4d315174dd080",
      "function": "withdrawNFTs(uint256[],address)",
      "arguments": [
        "[2]",
        "0xB0BF498288dff665e3129f63E1d010F9297205f1"
      ],
      "transaction": {
        "from": "0x764d2f2e65153a08c5509235334b08be2ae02915",
        "to": "0x8d69c9f6f2f903fda282c9de46c4d315174dd080",
        "gas": "0x358f5",
        "value": "0x0",
        "input": "0xc1c2c20c0000000000000000000000000000000000000000000000000000000000000040000000000000000000000000b0bf498288dff665e3129f63e1d010f9297205f100000000000000000000000000000000000000000000000000000000000000010000000000000000000000000000000000000000000000000000000000000002",
        "nonce": "0x62c",
        "chainId": "0x1"
      },
      "additionalContracts": [],
      "isFixedGasLimit": false
    }
  ],
  "receipts": [
    {
      "status": "0x1",
      "cumulativeGasUsed": "0x12427ae",
      "logs": [
        {
          "address": "0x83e2654994264333e6fdfe2e43eb862866746041",
          "topics": [
            "0x8c5be1e5ebec7d5bd14f71427d1e84f3dd0314c0f7b2291e5b200ac8c7c3b925",
            "0x0000000000000000000000008d69c9f6f2f903fda282c9de46c4d315174dd080",
            "0x0000000000000000000000000000000000000000000000000000000000000000",
            "0x0000000000000000000000000000000000000000000000000000000000000002"
          ],
          "data": "0x",
          "blockHash": "0x4ab14e564c641ba2f2bf35cf3a5796adfb85d1c3198ba99ed30d0289014f8fcc",
          "blockNumber": "0x16c67fe",
          "blockTimestamp": "0x6926ba03",
          "transactionHash": "0xd670e1fd9237cd149a2e4c8c6634148b1aa7b769f86c9958fb956e55c32f3462",
          "transactionIndex": "0xb7",
          "logIndex": "0x22b",
          "removed": false
        },
        {
          "address": "0x83e2654994264333e6fdfe2e43eb862866746041",
          "topics": [
            "0xddf252ad1be2c89b69c2b068fc378daa952ba7f163c4a11628f55a4df523b3ef",
            "0x0000000000000000000000008d69c9f6f2f903fda282c9de46c4d315174dd080",
            "0x000000000000000000000000b0bf498288dff665e3129f63e1d010f9297205f1",
            "0x0000000000000000000000000000000000000000000000000000000000000002"
          ],
          "data": "0x",
          "blockHash": "0x4ab14e564c641ba2f2bf35cf3a5796adfb85d1c3198ba99ed30d0289014f8fcc",
          "blockNumber": "0x16c67fe",
          "blockTimestamp": "0x6926ba03",
          "transactionHash": "0xd670e1fd9237cd149a2e4c8c6634148b1aa7b769f86c9958fb956e55c32f3462",
          "transactionIndex": "0xb7",
          "logIndex": "0x22c",
          "removed": false
        },
        {
          "address": "0xb0bf498288dff665e3129f63e1d010f9297205f1",
          "topics": [
            "0x8d66bac62beb4b8362a44ffe462d923e3237556ade9a8a2508df6097004847da",
            "0x0000000000000000000000000000000000000000000000000000000000000002"
          ],
          "data": "0x000000000000000000000000000000000000000000000000000000006926ba03",
          "blockHash": "0x4ab14e564c641ba2f2bf35cf3a5796adfb85d1c3198ba99ed30d0289014f8fcc",
          "blockNumber": "0x16c67fe",
          "blockTimestamp": "0x6926ba03",
          "transactionHash": "0xd670e1fd9237cd149a2e4c8c6634148b1aa7b769f86c9958fb956e55c32f3462",
          "transactionIndex": "0xb7",
          "logIndex": "0x22d",
          "removed": false
        },
        {
          "address": "0x8d69c9f6f2f903fda282c9de46c4d315174dd080",
          "topics": [
            "0xbcc8fe70ca8bacb5e7c02b4671a4f8d7d3217b6706bc2e6f405c43d8954c055c",
            "0x0000000000000000000000000000000000000000000000000000000000000002",
            "0x000000000000000000000000b0bf498288dff665e3129f63e1d010f9297205f1"
          ],
          "data": "0x",
          "blockHash": "0x4ab14e564c641ba2f2bf35cf3a5796adfb85d1c3198ba99ed30d0289014f8fcc",
          "blockNumber": "0x16c67fe",
          "blockTimestamp": "0x6926ba03",
          "transactionHash": "0xd670e1fd9237cd149a2e4c8c6634148b1aa7b769f86c9958fb956e55c32f3462",
          "transactionIndex": "0xb7",
          "logIndex": "0x22e",
          "removed": false
        }
      ],
      "logsBloom": "0x04000000000000000000000000000000000000100100000000000000000000000000000000800000000000000000000000000000100000002000000000200000000000000000000004000008000200000000000000000000000000000000000000000000028000000000000000000800000000000000000000000010000000000000000000000000000800004000000000000000000000000000000000080000020000000000000000000101000000000008000000080000000000000000000000000002000000000000000000000000000000000000000000000400080020000010000800000080000000000000000000080000808000000000000000000001",
      "type": "0x2",
      "transactionHash": "0xd670e1fd9237cd149a2e4c8c6634148b1aa7b769f86c9958fb956e55c32f3462",
      "transactionIndex": "0xb7",
      "blockHash": "0x4ab14e564c641ba2f2bf35cf3a5796adfb85d1c3198ba99ed30d0289014f8fcc",
      "blockNumber": "0x16c67fe",
      "gasUsed": "0x26c6d",
      "effectiveGasPrice": "0x388d49e",
      "from": "0x764d2f2e65153a08c5509235334b08be2ae02915",
      "to": "0x8d69c9f6f2f903fda282c9de46c4d315174dd080",
      "contractAddress": null
    }
  ],
  "libraries": [],
  "pending": [],
  "returns": {},
  "timestamp": 1764145670240,
  "chain": 1,
  "commit": null
}